:020000020000FC
:040000000C945A33CF
:040024000C94A22175
:040054000C94551C97
:040064000C94382799
:04006C000C940128C7
:040080000C94582163
:040090000C94E722C3
:1002000000000000000000000000000000000000EE
:1002100000000000000000000000000000000000DE
:1002200000000000000000000000000001000100CC
:10023000020003000300040004000500060006009D
:10024000070008000800090009000A000B000B0065
:100250000C000D000D000E000F000F00100010002C
:1002600011001200120013001400140015001600F3
:100270001600170017001800190019001A001B00BB
:100280001B001C001C001D001E001E001F00200083
:10029000200021002200220023002300240025004A
:1002A00025002600270027002800290029002A0011
:1002B0002A002B002C002C002D002E002E002F00D9
:1002C0002F0030003100310032000000000000013A
:1002D00000020003000400050006000700080009F2
:1002E0000010001100120013001400150016001772
:1002F00000180019002000210022002300240025FE
:100300000026002700280029003000310032003389
:100310000034003500360037003800390040004115
:1003200000420043004400450046004700480049A1
:100330000050005100520053005400550056005721
:1003400000580059006000610062006300640065AD
:100350000066006700680069007000710072007339
:1003600000740075007600770078007900800081C5
:100370000082008300840085008600870088008951
:1003800000900091009200930094009500960097D1
:100390000098009901000101010201030104010517
:1003A00001060107010801090110011101120113E1
:1003B000000000000000000000000000000000003D
:1003C000000000000000000000000000000000002D
:1003D000000000000000000000000000000000001D
:1003E000000000000000000000000000000000000D
:1003F00000000000000000000000000000000000FD
:1004000000000000000100020003000400060007D5
:10041000000800090010001100120013001400165B
:1004200000170018001900200021002200230024DA
:100430000025002700280029003000310032003359
:1004400000340035003600380039004000410042D9
:100450000043004400450046004800490050005158
:1004600000520053005400550056005700590060D8
:100470000061006200630064006500660067006858
:1004800000700071007200730074007500760077D0
:100490000078007900810082008300840085008656
:1004A00000870088008900910092009300940095D5
:1004B00000960097009800990100010201030104D1
:1004C00001050106010701080109011001110113CD
:1004D000011401150116011701180119012001214C
:1004E00001220124012501260127012801290130CB
:1004F000013101320134013501360137013801394A
:1005000001400141014201430145014601470148C3
:100510000149015001510152015301540156015743
:1005200001580159016001610162016301640165C3
:100530000167016801690170017101720173017441
:1005400001750177017801790180018101820183C0
:100550000184018501860188018901900191019240
:1005600001930194019501960197019902000201FE
:100570000202020302040205020602070208021038
:1005800002110212021302140215021602170218B7
:10059000022002210222022302240225022602272F
:1005A00002280229023102320233023402350236B5
:1005B0000237023802390240024202430244024535
:1005C00002460247024802490250025102530254B5
:1005D0000255025602570258025902600261026334
:1005E00002640265026602670268026902700271B3
:1005F0000272027402750276027702780279028032
:1006000002810282028302850286028702880289B1
:10061000029002910292029302940296029702982B
:100620000299030003010302030303040306030703
:100630000308030903100311031203130314031522
:1006400003170318031903200321032203230324A0
:100650000325032603280329033003310332033320
:1006600003340335033603370339034003410342A0
:10067000034303440345034603470349035003511F
:10068000035203530354035503560357035803609F
:10069000036103620363036403650366036703681E
:1006A000036903710372037303740375037603779D
:1006B000037803790380038203830384038503861D
:1006C000038703880389039003920393039403959C
:1006D0000396039703980399040004010403040498
:1006E0000405040604070408040904100411041294
:1006F0000414041504160417041804190420042112
:100700000422042404250426042704280429043090
:100710000431043204330435043604370438043910
:10072000044004410442044304440446044704488A
:10073000044904500451045204530454045504570A
:100740000458045904600461046204630464046589
:100750000467046804690470047104720473047407
:100760000475047604780479048004810482048387
:100770000484048504860487048904900491049207
:1007800004930494049504960497049805000501C5
:1007900005020503050405050506050705080510FE
:1007A000051105120513051405150516051705187D
:1007B00005190521052205230524052505260527FC
:1007C000052805290530053205330534053505367C
:1007D00005370538053905400541054305440545FC
:1007E000054605470548054905500551055305547B
:1007F00005550556055705580559056005610562FB
:100800000564056505660567056805690570057178
:1008100005720573057505760577057805790580F8
:100820000581058205830584058605870588058978
:1008300005900591059205930594059605970598F1
:1008400005990600060106020603060406050607CA
:1008500006080609061006110612061306140615E8
:100860000616061806190620062106220623062467
:1008700006250626062706290630063106320633E7
:100880000634063506360637063906400641064266
:1008900006430644064506460647064806500651E6
:1008A000065206530654065506560657065806596C
:1008B00006610662066306640665066606670668E4
:1008C0000669067006720673067406750676067764
:1008D00006780679068006820683068406850686E3
:1008E0000687068806890690069106930694069563
:1008F000069606970698069907000701070207045F
:100900000705070607070708070907100711071259
:1009100007130715071607170718071907200721D8
:100920000722072307250726072707280729073057
:1009300007310732073307340736073707380739D7
:100940000740074107420743074407450747074851
:1009500007490750075107520753075407550756D1
:10096000075807590760076107620763076407654F
:1009700007660768076907700771077207730774CE
:10098000077507760777077907800781078207834E
:1009900007840785078607870788079007910792CE
:1009A000079307940795079607970798080008018B
:1009B00008020803080408050806080708080809CB
:1009C0000811081208130814081508160817081843
:1009D00008190820082208230824082508260827C3
:1009E0000828082908300831083308340835083643
:1009F00008370838083908400841084308440845C2
:100A00000846084708480849085008510852085441
:100A100008550856085708580859086008610862C0
:100A2000086308650866086708680869087008713F
:100A300008720873087408760877087808790880BF
:100A4000088108820883088408860887088808893E
:100A500008900891089208930894089508970898B8
:100A60000899090009010902090309040905090691
:100A700009080909091009110912091309140915AE
:100A8000091609170919092009210922092309242E
:100A900009250926092709290930093109320933AD
:100AA000093409350936093709380940094109422D
:100AB00009430944094509460947094809490951B3
:100AC0000952095309540955095609570958095932
:100AD00009600962096309640965096609670968AB
:100AE000096909700972097309740975097609772A
:100AF00009780979098009810983098409850986AA
:100B00000987098809890990099109920994099529
:100B100009960997099809990999099909990999CB
:100B200009990999099909990999099909990999B5
:100B300009990999099909990999099909990999A5
:100B40000999099909990999099909990999099995
:100B50000999099909990999099909990999099985
:100B60000999099909990999099909990999099975
:100B70000999099909990999099909990999099965
:100B80000999099909990999099909990999099955
:100B90000999099909990999099909990999099945
:100BA0000999099909990999099909990999099935
:100BB000973A923A8C3A873A823A7D3A773A723A41
:100BC0006D3A683A623A5D3A583A533A4D3A483A81
:100BD000433A3E3A383A333A2E3A293A233A1E3AC1
:100BE000193A143A0E3A093A043AFF39F939F43904
:100BF000EF39EA39E439DF39DA39D539CF39CA3949
:100C0000C539C039BA39B539B039AB39A539A03988
:100C10009B39963990398B39863981397B397639C8
:100C200071396C39663961395C39573951394C3908
:100C3000473942393C39373932392D392739223948
:100C40001D39183912390D3908390339FD38F8388A
:100C5000F338EE38E838E338DE38D938D338CE38D0
:100C6000C938C438BE38B938B438AF38A938A43810
:100C70009F389A3894388F388A3885387F387A3850
:100C8000753870386A38653860385B385538503890
:100C90004B38463840383B38363831382B382638D0
:100CA00021381C38163811380C3807380138FC3711
:100CB000F737F237EC37E737E237DD37D737D23758
:100CC000CD37C837C237BD37B837B337AD37A83798
:100CD000A3379E37983793378E37893783377E37D8
:100CE000793774376E37693764375F375937543718
:100CF0004F374A3744373F373A3735372F372A3758
:100D0000253720371A37153710370B370537003797
:100D1000FB36F636F036EB36E636E136DB36D636DF
:100D2000D136CC36C636C136BC36B736B136AC361F
:100D3000A736A2369C36973692368D36873682365F
:100D40007D36783672366D36683663365D3658369F
:100D500053364E36483643363E36393633362E36DF
:100D6000293624361E36193614360F36093604361F
:100D7000FF35FA35F435EF35EA35E535DF35DA3567
:100D8000D535D035CA35C535C035BB35B535B035A7
:100D9000AB35A635A0359B35963591358B358635E7
:100DA00081357C35763571356C35673561355C3527
:100DB000573552354C35473542353D353735323567
:100DC0002D35283522351D35183513350D350835A7
:100DD0000335FE34F834F334EE34E934E334DE34EE
:100DE000D934D434CE34C934C434BF34B934B4342F
:100DF000AF34AA34A4349F349A3495348F348A346F
:100E0000853480347A34753470346B3465346034AE
:100E10005B34563450344B34463441343B343634EE
:100E200031342C34263421341C34173411340C342E
:100E300007340234FC33F733F233ED33E733E23374
:100E4000DD33D833D233CD33C833C333BD33B833B6
:100E5000B333AE33A833A3339E33993393338E33F6
:100E6000893384337E33793374336F336933643336
:100E70005F335A3354334F334A3345333F333A3376
:100E8000353330332A33253320331B3315331033B6
:100E90000B3306330033FB32F632F132EB32E632FB
:100EA000E132DC32D632D132CC32C732C132BC323E
:100EB000B732B232AC32A732A2329D32973292327E
:100EC0008D32883282327D32783273326D326832BE
:100ED00063325E32583253324E32493243323E32FE
:100EE000393234322E32293224321F32193214323E
:100EF0000F320A320432FF31FA31F531EF31EA3183
:100F0000E531E031DA31D531D031CB31C531C031C5
:100F1000BB31B631B031AB31A631A1319B31963105
:100F200091318C31863181317C31773171316C3145
:100F3000673162315C31573152314D314731423185
:100F40003D31383132312D31283123311D311831C5
:100F500013310E3108310331FE30F930F330EE3009
:100F6000E930E430DE30D930D430CF30C930C4304D
:100F7000BF30BA30B430AF30AA30A5309F309A308D
:100F8000953090308A30853080307B3075307030CD
:100F90006B30663060305B30563051304B3046300D
:100FA00041303C30363031302C30273021301C304D
:100FB000173012300C3007300230FD2FF72FF22F90
:100FC000ED2FE82FE22FDD2FD82FD32FCD2FC82FD5
:100FD000C32FBE2FB82FB32FAE2FA92FA32F9E2F15
:100FE000992F942F8E2F892F842F7F2F792F742F55
:100FF0006F2F6A2F642F5F2F5A2F552F4F2F4A2F95
:10100000452F402F3A2F352F302F2B2F252F202FD4
:101010001B2F162F102F0B2F062F012FFB2EF62E16
:10102000F12EEC2EE62EE12EDC2ED72ED12ECC2E5C
:10103000C72EC22EBC2EB72EB22EAD2EA72EA22E9C
:101040009D2E982E922E8D2E882E832E7D2E782EDC
:10105000732E6E2E682E632E5E2E592E532E4E2E1C
:10106000492E442E3E2E392E342E2F2E292E242E5C
:101070001F2E1A2E142E0F2E0A2E052EFF2DFA2D9E
:10108000F52DF02DEA2DE52DE02DDB2DD52DD02DE4
:10109000CB2DC62DC02DBB2DB62DB12DAB2DA62D24
:1010A000A12D9C2D962D912D8C2D872D812D7C2D64
:1010B000772D722D6C2D672D622D5D2D572D522DA4
:1010C0004D2D482D422D3D2D382D332D2D2D282DE4
:1010D000232D1E2D182D132D0E2D092D032DFE2C25
:1010E000F92CF42CEE2CE92CE42CDF2CD92CD42C6C
:1010F000CF2CCA2CC42CBF2CBA2CB52CAF2CAA2CAC
:10110000A52CA02C9A2C952C902C8B2C852C802CEB
:101110007B2C762C702C6B2C662C612C5B2C562C2B
:10112000512C4C2C462C412C3C2C372C312C2C2C6B
:10113000272C222C1C2C172C122C0D2C072C022CAB
:10114000FD2BF82BF22BED2BE82BE32BDD2BD82BF3
:10115000D32BCE2BC82BC32BBE2BB92BB32BAE2B33
:10116000A92BA42B9E2B992B942B8F2B892B842B73
:101170007F2B7A2B742B6F2B6A2B652B5F2B5A2BB3
:10118000552B502B4A2B452B402B3B2B352B302BF3
:101190002B2B262B202B1B2B162B112B0B2B062B33
:1011A000012BFC2AF62AF12AEC2AE72AE12ADC2A7A
:1011B000D72AD22ACC2AC72AC22ABD2AB72AB22ABB
:1011C000AD2AA82AA22A9D2A982A932A8D2A882AFB
:1011D000832A7E2A782A732A6E2A692A632A5E2A3B
:1011E000592A542A4E2A492A442A3F2A392A342A7B
:1011F0002F2A2A2A242A1F2A1A2A152A0F2A0A2ABB
:10120000052A002AFA29F529F029EB29E529E02900
:10121000DB29D629D029CB29C629C129BB29B62942
:10122000B129AC29A629A1299C29972991298C2982
:10123000872982297C29772972296D2967296229C2
:101240005D29582952294D29482943293D29382902
:1012500033292E29282923291E29192913290E2942
:1012600009290429FE28F928F428EF28E928E42888
:10127000DF28DA28D428CF28CA28C528BF28BA28CA
:10128000B528B028AA28A528A0289B28952890280A
:101290008B28862880287B28762871286B2866284A
:1012A00061285C28562851284C28472841283C288A
:1012B000372832282C28272822281D2817281228CA
:1012C0000D2808280228FD27F827F327ED27E8270F
:1012D000E327DE27D827D327CE27C927C327BE2752
:1012E000B927B427AE27A927A4279F279927942792
:1012F0008F278A2784277F277A2775276F276A27D2
:10130000652760275A27552750274B274527402711
:101310003B27362730272B27262721271B27162751
:1013200011270C2706270127FC26F726F126EC2695
:10133000E726E226DC26D726D226CD26C726C226D9
:10134000BD26B826B226AD26A826A3269D26982619
:1013500093268E26882683267E26792673266E2659
:10136000692664265E26592654264F264926442699
:101370003F263A2634262F262A2625261F261A26D9
:10138000152610260A2605260026FB25F525F0251C
:10139000EB25E625E025DB25D625D125CB25C62561
:1013A000C125BC25B625B125AC25A725A1259C25A1
:1013B000972592258C25872582257D2577257225E1
:1013C0006D25682562255D25582553254D25482521
:1013D00043253E25382533252E25292523251E2561
:1013E000192514250E2509250425FF24F924F424A4
:1013F000EF24EA24E424DF24DA24D524CF24CA24E9
:10140000C524C024BA24B524B024AB24A524A02428
:101410009B24962490248B24862481247B24762468
:1014200071246C24662461245C24572451244C24A8
:10143000472442243C24372432242D2427242224E8
:101440001D24182412240D2408240324FD23F8232A
:10145000F323EE23E823E323DE23D923D323CE2370
:10146000C923C423BE23B923B423AF23A923A423B0
:101470009F239A2394238F238A2385237F237A23F0
:10148000752370236A23652360235B235523502330
:101490004B23462340233B23362331232B23262370
:1014A00021231C23162311230C2307230123FC22B1
:1014B000F722F222EC22E722E222DD22D722D222F8
:1014C000CD22C822C222BD22B822B322AD22A82238
:1014D000A3229E22982293228E22892283227E2278
:1014E000792274226E22692264225F2259225422B8
:1014F0004F224A2244223F223A2235222F222A22F8
:10150000252220221A22152210220B220522002237
:10151000FB21F621F021EB21E621E121DB21D6217F
:10152000D121CC21C621C121BC21B721B121AC21BF
:10153000A721A2219C21972192218D2187218221FF
:101540007D21782172216D21682163215D2158213F
:1015500053214E21482143213E21392133212E217F
:10156000292124211E21192114210F2109210421BF
:10157000FF20FA20F420EF20EA20E520DF20DA2007
:10158000D520D020CA20C520C020BB20B520B02047
:10159000AB20A620A0209B20962091208B20862087
:1015A00081207C20762071206C20672061205C20C7
:1015B000572052204C20472042203D203720322007
:1015C0002D20282022201D20182013200D20082047
:1015D0000320FE1FF81FF31FEE1FE91FE31FDE1F8E
:1015E000D91FD41FCE1FC91FC41FBF1FB91FB41FCF
:1015F000AF1FAA1FA41F9F1F9A1F951F8F1F8A1F0F
:10160000851F801F7A1F751F701F6B1F651F601F4E
:101610005B1F561F501F4B1F461F411F3B1F361F8E
:10162000311F2C1F261F211F1C1F171F111F0C1FCE
:10163000071F021FFC1EF71EF21EED1EE71EE21E14
:10164000DD1ED81ED21ECD1EC81EC31EBD1EB81E56
:10165000B31EAE1EA81EA31E9E1E991E931E8E1E96
:10166000891E841E7E1E791E741E6F1E691E641ED6
:101670005F1E5A1E541E4F1E4A1E451E3F1E3A1E16
:10168000351E301E2A1E251E201E1B1E151E101E56
:101690000B1E061E001EFB1DF61DF11DEB1DE61D9B
:1016A000E11DDC1DD61DD11DCC1DC71DC11DBC1DDE
:1016B000B71DB21DAC1DA71DA21D9D1D971D921D1E
:1016C0008D1D881D821D7D1D781D731D6D1D681D5E
:1016D000631D5E1D581D531D4E1D491D431D3E1D9E
:1016E000391D341D2E1D291D241D1F1D191D141DDE
:1016F0000F1D0A1D041DFF1CFA1CF51CEF1CEA1C23
:10170000E51CE01CDA1CD51CD01CCB1CC51CC01C65
:10171000BB1CB61CB01CAB1CA61CA11C9B1C961CA5
:10172000911C8C1C861C811C7C1C771C711C6C1CE5
:10173000671C621C5C1C571C521C4D1C471C421C25
:101740003D1C381C321C2D1C281C231C1D1C181C65
:10175000131C0E1C081C031CFE1BF91BF31BEE1BA9
:10176000E91BE41BDE1BD91BD41BCF1BC91BC41BED
:10177000BF1BBA1BB41BAF1BAA1BA51B9F1B9A1B2D
:10178000951B901B8A1B851B801B7B1B751B701B6D
:101790006B1B661B601B5B1B561B511B4B1B461BAD
:1017A000411B3C1B361B311B2C1B271B211B1C1BED
:1017B000171B121B0C1B071B021BFD1AF71AF21A30
:1017C000ED1AE81AE21ADD1AD81AD31ACD1AC81A75
:1017D000C31ABE1AB81AB31AAE1AA91AA31A9E1AB5
:1017E000991A941A8E1A891A841A7F1A791A741AF5
:1017F0006F1A6A1A641A5F1A5A1A551A4F1A4A1A35
:10180000451A401A3A1A351A301A2B1A251A201A74
:101810001B1A161A101A0B1A061A011AFB19F619B6
:10182000F119EC19E619E119DC19D719D119CC19FC
:10183000C719C219BC19B719B219AD19A719A2193C
:101840009D19981992198D19881983197D1978197C
:1018500073196E19681963195E19591953194E19BC
:10186000491944193E19391934192F1929192419FC
:101870001F191A1914190F190A190519FF18FA183E
:10188000F518F018EA18E518E018DB18D518D01884
:10189000CB18C618C018BB18B618B118AB18A618C4
:1018A000A1189C18961891188C18871881187C1804
:1018B000771872186C18671862185D185718521844
:1018C0004D18481842183D18381833182D18281884
:1018D00023181E18181813180E1809180318FE17C5
:1018E000F917F417EE17E917E417DF17D917D4170C
:1018F000CF17CA17C417BF17BA17B517AF17AA174C
:10190000A517A0179A17951790178B17851780178B
:101910007B17761770176B17661761175B175617CB
:1019200051174C17461741173C17371731172C170B
:10193000271722171C17171712170D17071702174B
:10194000FD16F816F216ED16E816E316DD16D81693
:10195000D316CE16C816C316BE16B916B316AE16D3
:10196000A916A4169E16991694168F168916841613
:101970007F167A1674166F166A1665165F165A1653
:10198000551650164A16451640163B163516301693
:101990002B16261620161B16161611160B160616D3
:1019A0000116FC15F615F115EC15E715E115DC151A
:1019B000D715D215CC15C715C215BD15B715B2155B
:1019C000AD15A815A2159D15981593158D1588159B
:1019D00083157E15781573156E15691563155E15DB
:1019E000591554154E15491544153F15391534151B
:1019F0002F152A1524151F151A1515150F150A155B
:101A000005150015FA14F514F014EB14E514E014A0
:101A1000DB14D614D014CB14C614C114BB14B614E2
:101A2000B114AC14A614A1149C14971491148C1422
:101A3000871482147C14771472146D146714621462
:101A40005D14581452144D14481443143D143814A2
:101A500033142E14281423141E14191413140E14E2
:101A600009140414FE13F913F413EF13E913E41328
:101A7000DF13DA13D413CF13CA13C513BF13BA136A
:101A8000B513B013AA13A513A0139B1395139013AA
:101A90008B13861380137B13761371136B136613EA
:101AA00061135C13561351134C13471341133C132A
:101AB000371332132C13271322131D13171312136A
:101AC0000D1308130213FD12F812F312ED12E812AF
:101AD000E312DE12D812D312CE12C912C312BE12F2
:101AE000B912B412AE12A912A4129F129912941232
:101AF0008F128A1284127F127A1275126F126A1272
:101B0000651260125A12551250124B1245124012B1
:101B10003B12361230122B12261221121B121612F1
:101B200011120C1206120112FC11F711F111EC1135
:101B3000E711E211DC11D711D211CD11C711C21179
:101B4000BD11B811B211AD11A811A3119D119811B9
:101B500093118E11881183117E11791173116E11F9
:101B6000691164115E11591154114F114911441139
:101B70003F113A1134112F112A1125111F111A1179
:101B8000151110110A1105110011FB10F510F010BC
:101B9000EB10E610E010DB10D610D110CB10C61001
:101BA000C110BC10B610B110AC10A710A1109C1041
:101BB000971092108C10871082107D107710721081
:101BC0006D10681062105D10581053104D104810C1
:101BD00043103E10381033102E10291023101E1001
:101BE000191014100E1009100410FF0FF90FF40F44
:101BF000EF0FEA0FE40FDF0FDA0FD50FCF0FCA0F89
:101C0000C50FC00FBA0FB50FB00FAB0FA50FA00FC8
:101C10009B0F960F900F8B0F860F810F7B0F760F08
:101C2000710F6C0F660F610F5C0F570F510F4C0F48
:101C3000470F420F3C0F370F320F2D0F270F220F88
:101C40001D0F180F120F0D0F080F030FFD0EF80ECA
:101C5000F30EEE0EE80EE30EDE0ED90ED30ECE0E10
:101C6000C90EC40EBE0EB90EB40EAF0EA90EA40E50
:101C70009F0E9A0E940E8F0E8A0E850E7F0E7A0E90
:101C8000750E700E6A0E650E600E5B0E550E500ED0
:101C90004B0E460E400E3B0E360E310E2B0E260E10
:101CA000210E1C0E160E110E0C0E070E010EFC0D51
:101CB000F70DF20DEC0DE70DE20DDD0DD70DD20D98
:101CC000CD0DC80DC20DBD0DB80DB30DAD0DA80DD8
:101CD000A30D9E0D980D930D8E0D890D830D7E0D18
:101CE000790D740D6E0D690D640D5F0D590D540D58
:101CF0004F0D4A0D440D3F0D3A0D350D2F0D2A0D98
:101D0000250D200D1A0D150D100D0B0D050D000DD7
:101D1000FB0CF60CF00CEB0CE60CE10CDB0CD60C1F
:101D2000D10CCC0CC60CC10CBC0CB70CB10CAC0C5F
:101D3000A70CA20C9C0C970C920C8D0C870C820C9F
:101D40007D0C780C720C6D0C680C630C5D0C580CDF
:101D5000530C4E0C480C430C3E0C390C330C2E0C1F
:101D6000290C240C1E0C190C140C0F0C090C040C5F
:101D7000FF0BFA0BF40BEF0BEA0BE50BDF0BDA0BA7
:101D8000D50BD00BCA0BC50BC00BBB0BB50BB00BE7
:101D9000AB0BA60BA00B9B0B960B910B8B0B860B27
:101DA000810B7C0B760B710B6C0B670B610B5C0B67
:101DB000570B520B4C0B470B420B3D0B370B320BA7
:101DC0002D0B280B220B1D0B180B130B0D0B080BE7
:101DD000030BFE0AF80AF30AEE0AE90AE30ADE0A2E
:101DE000D90AD40ACE0AC90AC40ABF0AB90AB40A6F
:101DF000AF0AAA0AA40A9F0A9A0A950A8F0A8A0AAF
:101E0000850A800A7A0A750A700A6B0A650A600AEE
:101E10005B0A560A500A4B0A460A410A3B0A360A2E
:101E2000310A2C0A260A210A1C0A170A110A0C0A6E
:101E3000070A020AFC09F709F209ED09E709E209B4
:101E4000DD09D809D209CD09C809C309BD09B809F6
:101E5000B309AE09A809A3099E09990993098E0936
:101E6000890984097E09790974096F096909640976
:101E70005F095A0954094F094A0945093F093A09B6
:101E8000350930092A09250920091B0915091009F6
:101E90000B0906090009FB08F608F108EB08E6083B
:101EA000E108DC08D608D108CC08C708C108BC087E
:101EB000B708B208AC08A708A2089D0897089208BE
:101EC0008D08880882087D08780873086D086808FE
:101ED00063085E08580853084E08490843083E083E
:101EE000390834082E08290824081F08190814087E
:101EF0000F080A080408FF07FA07F507EF07EA07C3
:101F0000E507E007DA07D507D007CB07C507C00705
:101F1000BB07B607B007AB07A607A1079B07960745
:101F200091078C07860781077C07770771076C0785
:101F3000670762075C07570752074D0747074207C5
:101F40003D07380732072D07280723071D07180705
:101F500013070E0708070307FE06F906F306EE0649
:101F6000E906E406DE06D906D406CF06C906C4068D
:101F7000BF06BA06B406AF06AA06A5069F069A06CD
:101F8000950690068A06850680067B06750670060D
:101F90006B06660660065B06560651064B0646064D
:101FA00041063C06360631062C06270621061C068D
:101FB000170612060C0607060206FD05F705F205D0
:101FC000ED05E805E205DD05D805D305CD05C80515
:101FD000C305BE05B805B305AE05A905A3059E0555
:101FE000990594058E05890584057F057905740595
:101FF0006F056A0564055F055A0555054F054A05D5
:10200000450540053A05350530052B052505200514
:102010001B05160510050B0506050105FB04F60456
:10202000F104EC04E604E104DC04D704D104CC049C
:10203000C704C204BC04B704B204AD04A704A204DC
:102040009D04980492048D04880483047D0478041C
:1020500073046E04680463045E04590453044E045C
:10206000490444043E04390434042F04290424049C
:102070001F041A0414040F040A040504FF03FA03DE
:10208000F503F003EA03E503E003DB03D503D00324
:10209000CB03C603C003BB03B603B103AB03A60364
:1020A000A1039C03960391038C03870381037C03A4
:1020B000770372036C03670362035D0357035203E4
:1020C0004D03480342033D03380333032D03280324
:1020D00023031E03180313030E0309030303FE0265
:1020E000F902F402EE02E902E402DF02D902D402AC
:1020F000CF02CA02C402BF02BA02B502AF02AA02EC
:10210000A502A0029A02950290028B02850280022B
:102110007B02760270026B02660261025B0256026B
:1021200051024C02460241023C02370231022C02AB
:10213000270222021C02170212020D0207020202EB
:10214000FD01F801F201ED01E801E301DD01D80133
:10215000D301CE01C801C301BE01B901B301AE0173
:10216000A901A4019E01990194018F0189018401B3
:102170007F017A0174016F016A0165015F015A01F3
:10218000550150014A01450140013B013501300133
:102190002B01260120011B01160111010B01060173
:1021A0000101FC00F600F100EC00E700E100DC00BA
:1021B000D700D200CC00C700C200BD00B700B200FB
:1021C000AD00A800A2009D00980093008D0088003B
:1021D00083007E00780073006E00690063005E007B
:1021E000590054004E00490044003F0039003400BB
:1021F0002F002A0024001F001A0015000F000A00FB
:10220000050000009FEF91B990E092B990EC94B96D
:102210009FE395B990E097B99FEF98B998EF9AB975
:1022200097E09BB992E09DB99FEF9EB990E090BB7B
:1022300090E091BB9FEF90937E009FEF90937D0085
:1022400091E093BB91E094BB9FEF9093010190E0EC
:10225000909302019CEF90930A0193E090930B01FD
:1022600090E390936B0093E09093680093E09BBBA6
:1022700080E096E0906090609093C20088616898DA
:10228000709A699A719A806C8093C10090E09093E3
:10229000C00085E090E09093C5008093C40090E07A
:1022A00090934F0780E096E0906090609093CA0012
:1022B000886152985A9A539A5B9A80688093C900B1
:1022C00090E09093C80085E090E09093CD008093DB
:1022D000CC0090E09093270780E090E090939500E9
:1022E0008093940086EF95E790930F0780930E07F5
:1022F0008BE19DE090931107809310078BE19DE0A7
:10230000909399008093980090E09093900090E0D3
:102310009093920098E09093910092E090937100D6
:1023200088EB91E0909313078093120780EF95E577
:10233000909315078093140788EB91E0909317070B
:102340008093160790E0909318079BE290932001EA
:1023500080E090E0909325018093240180E090E05C
:10236000909329018093280180E090E090932B01C5
:1023700080932A0180E090E090932D0180932C01BE
:1023800099ED9093210190E0909373009BE29093DC
:10239000800080E090E0909385008093840080E04E
:1023A00090E0909389008093880080E090E0909383
:1023B0008B0080938A0080E090E090938D00809362
:1023C0008C0099ED9093810090E090936F0088E2EB
:1023D00092E0909389008093880088E292E0909345
:1023E00029018093280192E094BD90E096BD9CE67F
:1023F00097BD92E090936E009AE09093250790919C
:1024000025079093240795E095BD90E090932707CA
:1024100090ED9093090797E090930A0790E09093CE
:102420000B0790E39093030990E39093040990E3E2
:102430009093050990E09093060990E09093070926
:1024400090E39093080990E19093020990E09093B3
:10245000000990E09093010997E890937A0090E04A
:1024600090937B0092E090937C0097EC90937A009D
:1024700090E39093020A90E39093000A90E3909384
:10248000010A91E39093060790E09093070790E08C
:102490009093080790E39093000590E090930C07C9
:1024A00090E09093190790E090931A0790E0909332
:1024B0001B0790E390931C0790E390932C0590E307
:1024C00090931D0790E39093210990E0909330063C
:1024D00090E0909331068091310690913006909370
:1024E0008B0080938A0090E09093360790E390935E
:1024F000370790E390931E079F9390E0913031F45B
:1025000090910B01906490930B0105C090910B0189
:102510009F7B90930B019F9190910B019B7F9093D8
:102520000B015C9880E090E0909301078093000796
:1025300091E390935E0B90E390935F0B80E090E0CB
:1025400090938D0080938C0080E090E090932B011D
:1025500080932A0180E090E090932D0180932C01DC
:102560009FE390930B099FE390930C0990E3909362
:102570001F0790E39093280790E390935A0B90E302
:102580009093290791E390932A0791E3909337075B
:1025900090E0909336079AE59093380790E09093F7
:1025A000390799E790934D0790E090934E0790E399
:1025B00090934A0790E390934C0791E090934007E3
:1025C00094E99093410794E390933A0790E39093B2
:1025D0003B0790E390933C0791E09093420794E986
:1025E0009093430794E390933D0790E390933E07C5
:1025F00090E390933F0794E09093020B90E39093C5
:10260000070B90E09093460B90E09093470B90E07F
:102610009093480B90E39093080B90E090935607AB
:1026200090E39093570790E39093590790E090932D
:10263000390B90E090933A0B95E0909316099CED3E
:102640009093170990E39093180990E090930B06EC
:1026500090E090930A0690E39093C80790E39093DC
:10266000FA0791E09093DD079CE29093DC0791E0FC
:102670009093DB079CE29093DA0790E09093E30756
:102680009EE69093E20790E09093E1079CE8909398
:10269000E00790E09093DF0794E69093DE0792E0E6
:1026A0009093E90799E49093E80790E09093EB0703
:1026B00090E19093EA0790E39093480490E390931D
:1026C000490490E09093F50790E390934B0790E3D3
:1026D00090931E0790E39093F00780E090E0909332
:1026E000EE078093ED0790E39093EF0790E39093CC
:1026F000F40790E390936C0B90E390936D0B90E054
:102700009093680B90E09093EC0790E39093FD0713
:1027100090E39093E60792E390934C0490E09093BB
:102720004B0490E090934E0490E090934D0490E021
:102730009093F80790E09093FF079CED9093FE072D
:1027400090E090931D099CED90931C0990E3909369
:10275000200990E39093210990E090934D0498E034
:1027600090934D0490E09093340698E7909335064B
:10277000789408950F931F932F933F93EF93FF93B4
:102780004F930091000D0093080D0091010D0093EF
:10279000070D0091020D0093060D0091030D0093AB
:1027A000050D4EE920E4ECE0FDE018E088943FB729
:1027B0003FBF0081001F00833FB731971A95C1F7D3
:1027C0003FBF20F04A952A9571F716C016F08894FD
:1027D00001C0089447954093090D0091050D079598
:1027E00000930A0D0091060D079500930B0D0091C3
:1027F000070D079500930C0D4F91FF91EF913F91BD
:102800002F911F910F9108950F931F933F93EF9373
:10281000FF934F9300910A0D001F00930A0D409102
:10282000090D441F10F0E89401C0689408940091C9
:102830000A0D079500930A0D4F3508F43CC04F3937
:1028400010F0089440C000910A0D0093050D00910E
:102850000B0D0093060D00910C0D0093070D90E0F9
:102860009093080D9093090D90930A0D90930B0D82
:1028700090930C0DE5E0FDE018E088943FB74E39E9
:1028800049F03FBF0081079501933FB71A95B9F70B
:102890004395F0CF0091050D0093030D0091060DB7
:1028A0000093020D0091070D0093010D0091080D9A
:1028B0000093000D07C018E0E0E0FDE033273193FE
:1028C0001A95E9F788944F91FF91EF913F911F91ED
:1028D0000F9108950F931F932F933F93EF93FF93BF
:1028E00090E09093000D9093010D9093020D9093C2
:1028F000030D20E2E8E0FDE019E088943FB73FBF18
:102900000081079500833FB731971A95C1F72A9543
:1029100039F4FF91EF913F912F911F910F910895FD
:10292000E4E0FDE015E000810F70053008F0035091
:10293000302F0081007F003508F00053030F019312
:102940001A9589F7D7CF0F931F932F933F93EF9348
:10295000FF9390E09093040D9093050D9093060DD6
:102960009093070D9093080D20E2E0E0FDE019E060
:1029700088943FB73FBF0081001F00833FB7319667
:102980001A95C1F72A9539F4FF91EF913F912F9154
:102990001F910F910895E4E0FDE015E000810F70B4
:1029A000053008F00D5F302F0081007F003508F002
:1029B000005D030F008331961A9581F7D6CF0F93F0
:1029C0001F932F933F93EF93FF93E9E0FDE024E003
:1029D000332731932A95E9F720E2EDE0FDE010E19D
:1029E0000081007F003508F0005D302F00810F70FE
:1029F000053008F00D5F032B01931A9589F7ECE180
:102A0000FDE014E188943FB73FBF0081001F0083C1
:102A10003FB731971A95C1F72A95F9F6FF91EF91D3
:102A20003F912F911F910F9108950F931F932F9313
:102A30003F93EF93FF93EDE0FDE020E133273193E7
:102A40002A95E9F720E2E9E0FDE014E188943FB738
:102A50003FBF0081079501933FB71A95C9F7EDE095
:102A6000FDE010E10081007F003508F00053302FB9
:102A700000810F70053008F00350032B01931A9565
:102A800089F72A9501F7FF91EF913F912F911F91BF
:102A90000F9108954ED1B3D1503829F090E86927AD
:102AA0000CC00AF061D1BFC15FE32227332744275E
:102AB00001C03FD1A4D15038B1F3003899F3902F21
:102AC000951B8BF312F450D1FACF983118F02227CE
:102AD00033274427983028F0232F342F4427985049
:102AE000F9CF992329F04695379527959A95D9F7E7
:102AF000912F962742F014D0B0F6F794E794D7942C
:102B00000F5F8BF66DC010D051F008F414D0FF2089
:102B100052F2DD0CEE1CFF1C0150CBF761C067C008
:102B2000D20EE31EF41E0895D21AE30AF40A0895A1
:102B300066D1109578C19FEFD91AE90AF90A08956C
:102B4000DD0CEE1CFF1C771F0895AA24BB24CC24A7
:102B500088E1D216E306F40628F0D21AE30AF40A52
:102B6000089401C08894AA1CBB1CCC1CDD0CEE1C74
:102B7000FF1C8A9571F7DF92DA2CEB2CFC2C9F91CD
:102B8000969528F4D39419F4E39409F4F3940895F2
:102B9000CBD0DED0DD24EE2490E8F92E0FE306C082
:102BA000C8D004C02227332740E251E45523B9F0AE
:102BB0000023E9F024D1D9F016270894050B83F0FF
:102BC000469537952795F694E794D794BEDFFF2076
:102BD0002AF0DD0CEE1CFF1C015013F024C107C0CD
:102BE0009FE7092FF92A9FEFD92EE92E0895DD24BA
:102BF000EE24FF240027112708959BD004C051E440
:102C000040E233272227FBD091F3503881F3162777
:102C10000894051F2BF30AD0FF202AF0CC0CDD1CF2
:102C2000EE1CFF1C00C10F5FDBF2FDC09F938F9372
:102C3000AA24BB24CC24992788E1AA0CBB1CCC1C59
:102C4000DD1CEE1CFF1C30F4A20EB31EC41ED91EE8
:102C5000E91EF91E8A9589F78F919F91089564D096
:102C600077D0D1CF22273327442750E4A3CFBFCF3B
:102C70005BD00023E1F3DAF35D2C6E2C7F2C802EE9
:102C8000F1DF66D095E09F93A8D0D52CE62CF72CE9
:102C9000082D8CDFABD00EDFE5DF5AD09F919A95DF
:102CA00091F708957FD008C0EF93FF93EC2FFD2F8D
:102CB0003BD0FF91EF913DD002D09923089500239E
:102CC00082F0552342F0051740F029F4D216E306AE
:102CD000F40618F021F091E008959FEF08959927E8
:102CE00008955523D2F75017B0F3B9F72D153E05C7
:102CF0004F0588F3A1F3F1CF17D0702F9D2D9E299A
:102D00009F29972B09F473CF77230AF414DF0EE180
:102D1000772332F00A95DD0CEE1CFF1C771FF9CFEC
:102D2000DE2CEF2CF72E7FC0D190E190F190019135
:102D3000089521913191419151910895D192E1925B
:102D4000F192019308952193319341935193089502
:102D5000502F2D2D3E2D4F2D612F0895052FD22E52
:102D6000E32EF42E162F0895DF92EF92FF920F9329
:102D70001F93D22EE32EF42E052F162F6F915F9105
:102D80004F913F912F91089590E09BBFC895319648
:102D90000895FADFD02CF8DFE02CF6DFF02CF4DF1A
:102DA000002D0895F1DF202DEFDF302DEDDF402DD8
:102DB000EBDF502D0895D0921D0DE0921E0DF09284
:102DC0001F0D0093200D0895D0901D0DE0901E0D55
:102DD000F0901F0D0091200D08952093210D309348
:102DE000220D4093230D5093240D08952091210D21
:102DF0003091220D4091230D5091240D08959F9301
:102E0000102F90E8FF0C001F0927990FF7941078F6
:102E1000652F90E8440F551F5927990F4795607803
:102E20009F91003808959F93FF0C90E89027110F11
:102E30009795F794092F9F91089540420F00A0861F
:102E4000010010270000E8030000640000000A00F1
:102E50000000DB0F4940CDCCCC3D0000003F00001E
:102E6000803F000020418096184B20BCBE4C90E073
:102E70009093080D90E09093070D90E09093060DCD
:102E800090E09093050D90E09093040D90E0909366
:102E90000D0D90E090930E0D90E090930F0D90E04B
:102EA0009093100D90E09093110D90E09093120D7F
:102EB00090E09093130D90E09093140D90E0909318
:102EC000150D90E09093160D90E09093170D90E003
:102ED0009093180D90E09093190D90E090931A0D37
:102EE00090E090931B0D90E090931C0D089590E05E
:102EF0009093030D90E09093020D90E09093010D5C
:102F000090E09093000D90E09093090D90E09093E5
:102F10000A0D90E090930B0D90E090930C0D0895A6
:102F20006666863F3333733F0E9477170091110620
:102F3000109110060093000D1093010D0E94A31430
:102F40000091070D0093080D0091060D0093070DE9
:102F50000091050D0093060D0091040D0093050DE1
:102F600090E09093040D0E946A140091000D10915E
:102F7000010D00935D0B10935C0B0E94771700917D
:102F80001506109114060093000D1093010D0E9478
:102F9000A3140091070D0093080D0091060D0093F6
:102FA000070D0091050D0093060D0091040D00938F
:102FB000050D90E09093040D0E946A140091000D9D
:102FC0001091010D0093660B1093650B0E9477170B
:102FD00000911106109110060093000D1093010D41
:102FE0000E94BA13D0900C0DE0900B0DF0900A0DDA
:102FF0000091090DD092100BE092110BF092120B80
:103000000093130BFCDDFBDDD092200BE092210B33
:10301000F092220B0093230B0E9477170091130666
:10302000109112060093000D1093010D0E94BA1327
:10303000D0900C0DE0900B0DF0900A0D0091090D51
:10304000D092140BE092150BF092160B0093170B15
:103050000E94771700911506109114060093000D39
:103060001093010D0E94BA13D0900C0DE0900B0D3F
:10307000F0900A0D0091090DD092180BE092190BF7
:10308000F0921A0B00931B0BBADDB9DDD092280B1E
:10309000E092290BF0922A0B00932B0B0E947717DA
:1030A00000911706109116060093000D1093010D64
:1030B0000E94BA13D0900C0DE0900B0DF0900A0D09
:1030C0000091090DD0921C0BE0921D0BF0921E0B8B
:1030D00000931F0B94DD93DDD0922C0BE0922D0B0F
:1030E000F0922E0B00932F0B08950E94771790916A
:1030F000090B9093010D90910A0B9093000D0E9483
:10310000A3141091060D1F70105D10930B0B1091FE
:10311000050D107F1295105D10930C0B1091050D8D
:103120001F70105D10930D0B1091040D107F129500
:10313000105D10930E0B1091040D1F70105D109315
:103140000F0B0895E8940E94371700912005005353
:103150000093050D10912105105312950091220541
:103160000053012B0093040D0E946A14F8940091FF
:10317000000D10912B06010F009329060091010DFF
:1031800010912A06011F00932806E8940E94371721
:103190000091200500530093050D10912105105357
:1031A0001295009122050053012B0093040D0E94FB
:1031B0006A148091000D9091010D969587959695D2
:1031C000879500911306080F10911206191F0E948F
:1031D00077171093010D0093000D0E94A314009126
:1031E000070D0093080D0091060D0093070D009147
:1031F000050D0093060D0091040D0093050D90E060
:103200009093040D0E946A140091000D1091010D1D
:10321000F8940093640B1093630B78940895E894EA
:103220000E9437170091230500530093050D10915C
:10323000240510531295009125050053012B00938E
:10324000040D0E946A141091010D0091000D10935D
:103250002A0600932B060E9437171091230510535E
:103260001295009124050053012B0093050D009148
:103270002505005302950093040D0E946A140E94D4
:1032800037170091230500530093060D1091240574
:1032900010531295009125050053012B0093050D45
:1032A0000E946A141091010D0091000D1093490BBA
:1032B00000934A0B0895E8940E9437170091260561
:1032C00000530093050D109127051053129500919E
:1032D00028050053012B0093040D0E946A14F894F2
:1032E0000091000D10912B06010F00932D06009107
:1032F000010D10912A06011F00932C067894089561
:10330000E8940E9437170091290500530093060D99
:1033100010912A051053129500912B050053012B93
:103320000093050D0E946A140091010D00932E0672
:103330000091000D00932F060895F8941091400716
:10334000009141077894E0EBF3E0000F111FE00FCC
:10335000F11F159104911F70105D10933A07102F03
:10336000107F1295105D10933B070F70005D009366
:103370003C070895F8941091420700914307789410
:10338000E0EBF3E0000F111FE00FF11F1591049126
:103390001F70105D10933D07102F107F1295105D68
:1033A00010933E070F70005D00933F070895E89467
:1033B0000E9437170091160500530093050D1091D8
:1033C000150510531295009114050053012B00931D
:1033D000040D0E946A140091010D009323060091D0
:1033E000000D009322060895E8940E94371710916B
:1033F000040510531295009103050053012B00930F
:10340000050D10910205105312950091010500530E
:10341000012B0093040D0E946A141091010D00917C
:10342000000D109319060093180616950795109332
:103430005F07009360070895E8940E943717109182
:10344000080510531295009107050053012B0093B6
:10345000050D1091060510531295009105050053B6
:10346000012B0093040D0E946A140091010D00933A
:103470001B060091000D00931A060895E8940E941F
:10348000371710910C051053129500910B0500533E
:10349000012B0093050D10910A0510531295009110
:1034A00009050053012B0093040D0E946A1400913A
:1034B000010D00931D060091000D00931C06089558
:1034C000E894009118061091190620911A0630917F
:1034D0001B0640911C0650911D06020F131F040F7E
:1034E000151F00932007109321070895E8940E9468
:1034F000371700910F0500530093050D10910E052D
:103500001053129500910D050053012B0093040DEB
:103510000E946A140091010D00931F060091000D96
:1035200000931E060895E8940E9437171091130522
:1035300010531295009112050053012B0093050DB5
:103540001091110510531295009110050053012B95
:103550000093040D0E946A141091010D109321062E
:103560000091000D00932006009120061091210685
:10357000ACE3B0E00A1B1B0B22F400E010E00C945B
:10358000C31A16950795A0912006B0912106A01B9D
:10359000B10BB0932C07A0932B0700912B07109130
:1035A0002C07ACE3B0E00A1B1B0B22F400E010E098
:1035B0000C94DC1A16950795A0912B07B0912C0757
:1035C000A01BB10BB0932E07A0932D0700912D07E0
:1035D00010912E07ACE3B0E00A1B1B0B22F400E0B5
:1035E00010E00C94F51A16950795A0912D07B0914F
:1035F0002E07A01BB10BB0933007A0932F070091AB
:103600002F0710913007ACE3B0E00A1B1B0B22F42C
:1036100000E010E00C940E1B16950795A0912F0763
:10362000B0913007A01BB10BB0933207A0933107C4
:103630000895E8940E94371710911B0510531295B6
:1036400000911A050053012B0093050D10911905E7
:1036500010531295009118050053012B0093040D8F
:103660000E946A140091010D009325060091000D3F
:10367000009324060895E8940E94371710911F05BF
:103680001053129500911E050053012B0093050D58
:1036900010911D051053129500911C050053012B2C
:1036A0000093040D0E946A140091010D00932706F7
:1036B0000091000D009326060895A0910909B0918C
:1036C0000A09ECECF2E0AA0FBB1FEA0FFB1FB59151
:1036D000A491BF70B05DB0930509BA2FB07FB295C9
:1036E000B05DB0930409AF70A05DA0930309089585
:1036F000F894B0910709A091060990E39093080906
:103700007894F999FECFF1E0F2BDF1E0F1BDF89ABD
:10371000F0B5F999FECFE1E0E2BDE0E0E1BDF89A55
:10372000E0B5AE17BF0711F40C94BA1B10F40C945B
:10373000A61BAE1BBF0BB0931909A0931A090E94D8
:10374000BD1BB0E0A0911B09AB5E0895EA1BFB0B0B
:10375000F0931909E0931A090E94BD1BA5E1B0E09E
:10376000F0E0E0911B09E03110F4AE1B0895A5E0F4
:10377000B0E00895A5E1B0E0089590E090931B09B2
:10378000B0911909A0911A09F0E0F999FECFE1E092
:10379000E2BDE4E0E1BDF89AE0B5AE17BF0720F462
:1037A00090E090931B09089500911B090F3448F491
:1037B0000395AE1BBF0B00931B09EA17FB07A0F391
:1037C000089590E590931B0908950E94781BB0938B
:1037D0000A09A0930909089500009E42F999FECFB5
:1037E000B1E0B2BDB3E0B1BDF89AB0B5F999FECF82
:1037F000A1E0A2BDA2E0A1BDF89AA0B5F999FECFC3
:10380000F1E0F2BDF1E0F1BDF89AF0B5F999FECF23
:10381000E1E0E2BDE0E0E1BDF89AE0B5AE1BBF0B30
:103820000E947717B093010DA093000DE8940E94B9
:10383000BA13D0900C0DE0900B0DF0900A0D009192
:10384000090DE8EDF7E30E94D2160E94D615D0923A
:103850000C0DE0920B0DF0920A0D0093090D0E94E1
:1038600004140091000D1091090D107F103808F01C
:10387000039510E0F999FECF0F9301E002BD04E03B
:1038800001BD0F9100BDF894FA9AF99A7894F999CC
:10389000FECF1F9311E012BD15E011BD1F9110BDA9
:1038A000F894FA9AF99A789408958F939F939FB712
:1038B0009F93AF93BF93EF93FF9390E090934B044C
:1038C00092E390934C0490913707913349F490918F
:1038D00036079A959093360719F490E3909337073B
:1038E00090917C00913011F190917C00923011F414
:1038F0000C94FC1C90917C00933061F080917800D6
:1039000090917900909342078093430792E09093BF
:103910007C00A6C080917800909179009093400738
:103920008093410795E090937C009AC08091780045
:1039300090917900B091E907A091E8078A179B0759
:1039400020F090E39093010A53C0E091EA07F091D0
:10395000EB07A091E807B091E907AE1BBF0B8A17F0
:103960009B0720F091E39093010A42C0E091EA079F
:10397000F091EB07A091E807B091E907AE1BBF0BF0
:10398000AE1BBF0B8A179B0720F092E39093010AAE
:103990002FC0E091EA07F091EB07A091E807B09102
:1039A000E907AE1BBF0BAE1BBF0BAE1BBF0B8A17CD
:1039B0009B0720F093E39093010A1AC0E091EA0775
:1039C000F091EB07A091E807B091E907AE1BBF0BA0
:1039D000AE1BBF0BAE1BBF0BAE1BBF0B8A179B07EB
:1039E00020F094E39093010A03C095E39093010AB9
:1039F00093E090937C0034C080917800909179009E
:103A0000A0910009B0910109A80FB91FA093000966
:103A1000B0930109909102099A959093020901F5DA
:103A200094E090930209B695A795909102099A9512
:103A300090930209C1F7A650B040A0930609B09335
:103A4000070991E39093080990E19093020990E0AF
:103A50009093000990E09093010991E090937C008D
:103A600097EC90937A0090911907903061F09A95B5
:103A70009093190711F00C94431D92E3909319074A
:103A800091E090931A07909124079A9590932407B8
:103A900021F4909125079093240790912707903067
:103AA000A9F1909127079A959093270779F590E0CF
:103AB00090934F0780E096E0906090609093C200F2
:103AC00088616898709A699A719A80648093C1003D
:103AD00090E09093C00085E090E09093C5008093C3
:103AE000C40095E49093000894E5909301089AE04F
:103AF0009093020898E09093530791E090935407B5
:103B000095E49093C60092E09093550790910B072F
:103B1000903099F08091090790910A07019780935E
:103B2000090790930A0749F490ED9093090797E0ED
:103B300090930A0792E090930B0790911E07993398
:103B4000B9F490915707903311F40C94E81D9091BB
:103B50005807923010F40C94B11D9150909358076F
:103B600049C196E99093580791E39093590742C150
:103B700090E39093290790912C05903311F40C94C5
:103B8000FA1E90912C05923311F40C94FA1E909128
:103B90000005923331F090910005933311F00C94AD
:103BA000E81D8091220790912307019780932207B7
:103BB0009093230711F00C94E81D90E390931F0756
:103BC00080912007909121078093220790932307EB
:103BD0008091000790910107A1E7B7E18A179B0741
:103BE00058F4A0E0B0E08A179B0731F0019780936A
:103BF000000790930107FEC090911E07993411F4BD
:103C00000C94371E90911E079A3411F40C94991E4F
:103C100090911E07993311F40C94FA1E90E390933F
:103C20005A0B90914B07913311F40C94251F9091EE
:103C30001E07973311F00C94251F9F9390E091304D
:103C400031F490910B01906490930B0105C0909119
:103C50000B019F7B90930B019F9181E090E09093EB
:103C600001078093000790E090930807C3C091E399
:103C70009093210990E09093300690E09093310664
:103C8000809131069091300690938B0080938A004A
:103C900098E490931E079F9390E0913031F49091B7
:103CA0000B01906490930B0105C090910B019F7BD9
:103CB00090930B019F9190910B019B7F90930B012F
:103CC0005C9880E090E090930107809300079CEB64
:103CD0009093260B92E09093270B91E39093FD072E
:103CE00090E090930D0690E090930C0690E09093F6
:103CF0000F0690E090930E0680910C0690910D06B1
:103D000090932B0180932A0180910E0690910F06CB
:103D100090932D0180932C0190E39093FA0790E308
:103D200090932C0590E090938D0098E290938C00F6
:103D300061C091E39093210990E09093300690E068
:103D400090933106809131069091300690938B00CC
:103D500080938A009CE490931E079F9390E091309B
:103D600031F490910B01906490930B0105C09091F8
:103D70000B019F7B90930B019F9190910B019B7F77
:103D800090930B015C9880E090E090930107809302
:103D900000079CEB9093260B92E09093270B91E306
:103DA0009093FD0790E090930D0690E090930C06A1
:103DB00090E090930F0690E090930E0680910C0691
:103DC00090910D0690932B0180932A0180910E060D
:103DD00090910F0690932D0180932C0190E3909386
:103DE000FA0790E390932C0590E090938D0098E271
:103DF00090938C0090911609903021F490911709BE
:103E00009030D1F0C0918C00D0918D00B0916F0BAB
:103E1000A0916E0BCA17DB0710F40C941C1FB09115
:103E20001609A09117091197B0931609A0931709C5
:103E300019F491E390931809FF91EF91BF91AF911D
:103E40009F919FBF9F918F91189590911E079133DD
:103E500011F40C94E51F90911E07943311F40C9407
:103E60001E2090911E07923311F40C948D20909196
:103E70001E07963311F40C948D2090911E079333F6
:103E800011F40C94451F0C94481F90E390934A073B
:103E90009091F407913311F00C94581F90E3909394
:103EA000F40790E09093010794E190930007A2CF6C
:103EB00090E39093280791E39093210991E09093E8
:103EC000300694EF90933106809131069091300640
:103ED00090938B0080938A0090E39093FC0790E38B
:103EE0009093F90790E39093EF0791E390931F0766
:103EF00090E39093D60791E39093D90790E3909342
:103F0000D80793E09093360791E39093370791E3B6
:103F100090931E079F9391E0913031F490910B01A3
:103F2000906490930B0105C090910B019F7B90933F
:103F30000B019F9190910B019B7F90930B019091AE
:103F40005D0B9093260B90915C0B9093270B5C98E4
:103F500090E390935A0B90E39093620790E39093D1
:103F60005B0B80910006909101069093010780936E
:103F7000000790910005903389F0909100059233ED
:103F800069F090910005943349F080910806909172
:103F9000090690938D0080938C0006C090E090936A
:103FA0008D0094E690938C0080910C0690910D0604
:103FB00090932B0180932A0180910E0690910F0619
:103FC00090932D0180932C0115CF80910206909142
:103FD0000306803090E0990711F40C948D2090E353
:103FE0009093210991E09093300694EF90933106DD
:103FF000809131069091300690938B0080938A00D7
:1040000093E09093360791E39093370792E3909370
:104010001E0790910B019B7F90930B015C9A8091FE
:10402000020690910306909301078093000790E0A9
:1040300090938D009CE390938C00DCCE90910005D2
:10404000943311F40C942C2090910005953311F4C5
:104050000C942C200C948D2090914B07913311F4EB
:104060000C948D2090E39093210991E09093300679
:1040700094EF9093310680913106909130069093A1
:104080008B0080938A0093E09093360791E390939E
:10409000370797E390931E0790910B019B7F9093B6
:1040A0000B015C9881E090E09093010780930007FA
:1040B00090E39093D70790E39093590B90E39093FC
:1040C000CE0790E39093D00790E39093D40790E3CA
:1040D0009093D90790E39093D80790E39093D507F6
:1040E00090E39093F30780910C0690910D069093C6
:1040F0002B0180932A0180910E0690910F069093D8
:104100002D0180932C0190E090938D0098E2909384
:104110008C0090E390934B076DCE91E39093290729
:1041200090910A0B9093700B9091090B9093710BE7
:1041300090910A0B9093720B9091090B9093730BD3
:1041400090910A0B9093740B9091090B9093750BBF
:1041500090910A0B9093760B9091090B9093770BAB
:1041600090910A0B9093780B9091090B9093790B97
:1041700090910A0B90937A0B9091090B90937B0B83
:1041800090910A0B90937C0B9091090B90937D0B6F
:1041900090910A0B90937E0B9091090B90937F0B5B
:1041A00090910A0B9093800B9091090B9093810B47
:1041B00090910A0B9093820B9091090B9093830B33
:1041C00090E3909321099091FF079093300690918E
:1041D000FE079093310680913106909130069093BE
:1041E0008B0080938A0093E09093360791E390933D
:1041F000370793E390931E079F9390E0913031F43B
:1042000090910B01906490930B0105C090910B016C
:104210009F7B90930B019F9190910B019B7F9093BB
:104220000B015C988091040690910506909301071C
:104230008093000790E39093FA0780910C06909189
:104240000D0690932B0180932A0180910E06909188
:104250000F0690932D0180932C0190E090938D0098
:1042600098E290938C0090E39093D90790E3909319
:10427000590B90E39093CE0790E39093D00790E38F
:104280009093D40790E39093D90790E39093D80745
:1042900090E39093D50790E39093F30790E0909389
:1042A000FB0790E39093D707A5CD90E09093080784
:1042B0008F939F939FB79F935D9B0AC05D9880915A
:1042C0000E0790910F07909399008093980035C046
:1042D00080911607909117078150904080931607A0
:1042E00090931707E1F490911807913061F091E0F5
:1042F00090931807809114079091150780931607E3
:10430000909317070CC090E09093180780911207C4
:1043100090911307809316079093170700C0909110
:104320001807913009F05D9A80911007909111075C
:10433000909399008093980000C09F919FBF9F9198
:104340008F9118958F939F939FB79F931C9907C048
:104350001D991BC19F919FBF9F918F91189590911F
:10436000F507933011F40C94AA21909109019370F0
:10437000903011F40C940922913011F40C947522B0
:10438000923011F40C94C521E5CF90911E07903323
:1043900011F40C94042290911E07983411F40C949B
:1043A000042290911E079C3411F40C9404229091E5
:1043B0001E07993311F40C94042290910005903358
:1043C00011F40C94042290910005923311F40C9492
:1043D000042290910005943311F40C9404229091DE
:1043E0000005913311F40C94012290910005933350
:1043F00011F40C94012290910005953311F40C9462
:10440000012291E39093F9079F919FBF9F918F9114
:1044100018959091EF07913311F40C94AA21909183
:104420005A0B913311F40C94AA219091F007913317
:1044300011F40C94AA219091F007923311F40C948A
:10444000AA2190911E07903311F40C947022909140
:104450001E07983411F40C94702290911E079C341E
:1044600011F40C94702290911E07993311F40C945E
:10447000702290910005903311F40C947022909169
:104480000005923311F40C9470229091000594333E
:1044900011F40C94702290910005913311F40C9456
:1044A0005D2290910005933311F40C945D2290915C
:1044B0000005953311F40C945D22AF93BF93809166
:1044C0000806909109068F5F9F4FA9E2B2E08A1714
:1044D0009B0720F48093080690930906BF91AF9143
:1044E0009F919FBF9F918F91189590911E07903338
:1044F00011F40C94C02290911E07983411F40C947E
:10450000C02290911E079C3411F40C94C02290910B
:104510001E07993311F40C94C0229091000590333A
:1045200011F40C94C02290910005923311F40C9474
:10453000C02290910005943311F40C94C022909104
:104540000005913311F40C94B1229091000593333E
:1045500011F40C94B12290910005953311F40C9450
:10456000B122AF93BF9380910806909109068150C4
:10457000904022F08093080690930906BF91AF9176
:104580009F919FBF9F918F91189590911E0799338E
:1045900011F40C94CC2213C080E090E090938D0035
:1045A00080938C0080E090E090932B0180932A010F
:1045B00080E090E090932D0180932C0103C091E363
:1045C00090935A0B9F919FBF9F918F9118958F93B6
:1045D0009F939FB79F93AF93BF939091CE0090937B
:1045E0000D07913511F40C945625973511F40C9460
:1045F0006725913711F40C941225973711F40C9418
:104600002325953411F40C947825923511F40C94EB
:104610008925953611F40C943425923711F40C94B5
:104620004525913311F40C945323903311F40C94D9
:104630000227983511F00C942D239091C8079133DF
:1046400011F40C94282390E390930D070C94022707
:1046500090E39093C8070C9402279091000594333F
:1046600029F090910005953309F00CC090910D0749
:10467000923311F40C94052690910D07933311F4A5
:104680000C949B2690911B07953011F40C942E27C7
:10469000939590931B0792E39093190791E0909361
:1046A0001A070C942E2790911E07973311F40C943F
:1046B0009A2590911E07943311F00C9467239091E2
:1046C0000B019470943011F40C940227A7C09091C0
:1046D0001E07963311F40C940E2490911E07933309
:1046E00011F00C94022791E390930C079091000530
:1046F000913331F090910005903311F00C940E2419
:1047000090E39093280791E39093210991E090938F
:10471000300694EF909331068091310690913006E7
:1047200090938B0080938A0090E39093FC0790E332
:104730009093F90790E39093EF0791E390931F070D
:1047400090E39093D60791E39093D90790E39093E9
:10475000D80793E09093360791E39093370791E35E
:1047600090931E079F9391E0913031F490910B014B
:10477000906490930B0105C090910B019F7B9093E7
:104780000B019F9190910B019B7F90930B01909156
:104790005D0B9093260B90915C0B9093270B5C988C
:1047A00090E390935A0B90E39093620790E3909379
:1047B0005B0B809100069091010690930107809316
:1047C000000790910005903389F090910005923395
:1047D00069F090910005943349F08091080690911A
:1047E000090690938D0080938C0006C090E0909312
:1047F0008D0094E690938C0080910C0690910D06AC
:1048000090932B0180932A0180910E0690910F06C0
:1048100090932D0180932C010C9402279091000518
:10482000933331F090910005923311F00C949A2556
:1048300090911F07903311F40C94872490E3909388
:10484000280791E39093210991E09093300694EF2B
:1048500090933106809131069091300690938B00B1
:1048600080938A0090E39093FC0790E39093F9077C
:1048700090E39093EF0791E390931F0790E3909359
:10488000D60791E39093D90790E39093D80793E0EC
:104890009093360791E3909337079F9391E091307F
:1048A00031F490910B01906490930B0105C09091AD
:1048B0000B019F7B90930B019F9194E390931E07B4
:1048C0009091660B9093260B9091650B9093270B1C
:1048D0005C9890E390935A0B90E39093620790E377
:1048E00090935B0B809100069091010690930107D5
:1048F0008093000790E39093440790E390936307BD
:1049000090910B01946090930B010C94022791E31A
:104910009093210991E09093300694EF90933106A3
:10492000809131069091300690938B0080938A009D
:1049300090E39093FC0790E39093F90790E39093B2
:10494000EF0791E390931F0790E39093D60791E3CD
:104950009093D90790E39093D80793E0909336070C
:1049600091E39093370791E390931E079F9391E013
:10497000913031F490910B01906490930B0105C03C
:1049800090910B019F7B90930B019F9190910B0154
:104990009B7F90930B0190915D0B9093260B9091D0
:1049A0005C0B9093270B5C9890E390935A0B90E3E9
:1049B0009093620790E390935B0B80910006909137
:1049C00001069093010780930007909100059033B2
:1049D00089F090910005923369F09091000594332D
:1049E00049F0809108069091090690938D0080937C
:1049F0008C0006C090E090938D0094E690938C001C
:104A000080910C0690910D0690932B0180932A01C2
:104A100080910E0690910F0690932D0180932C01AA
:104A20000C940227A091DA07B091DB071A96A835FB
:104A300092E0B90710F00C942E27B093DB07A093F7
:104A4000DA070C942E27A091DA07B091DB071A97AA
:104A5000A03090E0B90714F40C942E27B093DB0734
:104A6000A093DA070C942E27A091DC07B091DD0704
:104A70001A96A83592E0B90710F00C942E27B0933F
:104A8000DD07A093DC070C942E27A091DC07B091E2
:104A9000DD071A97A03090E0B90714F40C942E2784
:104AA000B093DD07A093DC070C942E27A091DA07C2
:104AB000B091DB07D296A83592E0B90710F00C94BC
:104AC0002E27B093DB07A093DA070C942E27A09132
:104AD000DA07B091DB07D297A03090E0B90714F461
:104AE0000C942E27B093DB07A093DA070C942E27A3
:104AF000A091DC07B091DD07D296A83592E0B90706
:104B000010F00C942E27B093DD07A093DC070C94D3
:104B10002E27A091DC07B091DD07D297A03090E05E
:104B2000B90714F40C942E27B093DD07A093DC078B
:104B30000C942E2790E39093280794E092B991E388
:104B40009093210991E09093300694EF9093310671
:104B5000809131069091300690938B0080938A006B
:104B600090E39093FC0790E39093F90790E3909380
:104B7000EF0791E390931F0790E39093D60791E39B
:104B80009093D90790E39093D80793E090933607DA
:104B900091E3909337079F9391E0913031F4909196
:104BA0000B01906490930B0105C090910B019F7BCA
:104BB00090930B019F9194E390931E079091660B45
:104BC0009093260B9091650B9093270B5C9890E344
:104BD00090935A0B90E39093620790E390935B0B52
:104BE0008091000690910106909301078093000741
:104BF00090E39093440790E39093630790910B01A7
:104C0000946090930B010C94022790914B07913381
:104C100011F40C94022792E092B991E390934B0720
:104C200091E39093210991E09093300694EF909353
:104C30003106809131069091300690938B008093DD
:104C40008A0090E39093FC0790E39093F90790E338
:104C50009093EF0791E390931F0790E39093D6070B
:104C600091E39093D90790E39093D80793E09093C2
:104C7000360791E39093370791E390931E079F9334
:104C800091E0913031F490910B01906490930B017D
:104C900005C090910B019F7B90930B019F91909188
:104CA0000B019B7F90930B0190915D0B9093260BD2
:104CB00090915C0B9093270B5C9890E390935A0B28
:104CC00090E39093620790E390935B0B80910006D2
:104CD0009091010690930107809300079091000541
:104CE000903389F090910005923369F0909100051E
:104CF000943349F0809108069091090690938D00B5
:104D000080938C0006C090E090938D0094E6909381
:104D10008C0080910C0690910D0690932B0180934E
:104D20002A0180910E0690910F0690932D01809399
:104D30002C010C94022790914B07903311F40C94A2
:104D4000022791E092B990E390934B0790E3909300
:104D5000210991E09093300694EF90933106809171
:104D600031069091300690938B0080938A0093E0F7
:104D70009093360791E39093370797E390931E073C
:104D800090910B019B7F90930B015C9881E090E0E8
:104D9000909301078093000790E39093D70790E3E7
:104DA0009093590B90E39093CE0790E39093D007A4
:104DB00090E39093D40790E39093D90790E3909376
:104DC000D80790E39093D50790E39093F3078091F1
:104DD0000C0690910D0690932B0180932A018091EF
:104DE0000E0690910F0690932D0180932C0190E078
:104DF00090938D0098E290938C0090E390934B07F2
:104E00000C94022792E39093190790E090931A076D
:104E100090E090931B079091F007913341F492E357
:104E20009093F00790E590930D070C942A279091AA
:104E3000F007903379F0D0900B01D6FC0C942A2720
:104E40009091EF07913331F090E39093F00792E463
:104E500090930D0790910D079093CE00BF91AF9165
:104E60009F919FBF9F918F91189590931D07CACFD7
:104E70000F938F939F93AF93BF939FB79F939091FF
:104E8000C600909326070E94192C90914F079030EE
:104E900011F00C94BB27009126070D3411F40C94EB
:104EA000A727063411F40C947429003511F40C94DE
:104EB000A7270F3411F40C947F27043511F40C94B8
:104EC000A727013511F40C944828053511F40C94EA
:104ED0003C28033411F40C949327013411F40C94FE
:104EE000A7270C94F92790E09093270790918008CA
:104EF0009093420491E4909356070C94F9270E94F2
:104F0000192C0093500798EC9093270790914F0726
:104F1000939590934F0798E09093510790E8909362
:104F200052070C94F9270E94192C0093500798EC13
:104F30009093270790914F07939590934F0798E090
:104F40009093510790E8909352070C94F9270E9490
:104F5000192C0093500798EC9093270790914F07D6
:104F6000939590934F0798E09093510790E8909312
:104F700052070C94F927009126070A3011F40C947B
:104F8000D927003310F40C94E82B0A3310F00C945A
:104F9000E82BB0915107A09152070D93B0935107A0
:104FA000A093520790914F07939590934F070C94BD
:104FB000F927909150079D3411F40C94E72A9091B1
:104FC0005007933411F40C94692A9091500791344E
:104FD00011F40C947327909150079F3411F40C94A2
:104FE000D12A90915007903511F40C9462290C94B9
:104FF0004F289F919FBFBF91AF919F918F910F912C
:1050000018958F939F93AF93BF939FB79F93909162
:1050100055079030D1F49091C60080E096E0906002
:1050200090609093C20088616898709A699A719AAA
:10503000806C8093C10090E09093C00085E090E088
:105040009093C5008093C40010C0B0915307A09105
:1050500054079D91B0935307A09354079093C600B3
:10506000909155079A95909355079F919FBFBF9137
:10507000AF919F918F9118950E94192C90E3909376
:10508000570790E39093590790E090935807B1CF5A
:105090000E94192C91E5909356070C94F92790E003
:1050A0009093270790911E07903331F090911E073F
:1050B000993311F00C94B72B9091800890931304BE
:1050C000909181089093120490918208909311041A
:1050D00090918308909310049091840890931B04FE
:1050E0009091850890931A049091860890931904E2
:1050F00090918708909318049091880890931F04CA
:105100009091890890931E0490918A0890931D04B1
:1051100090918B0890931C0490918C089093330786
:1051200090918D089093340790913407913341F01A
:1051300090913407903311F40C94AB280C94B72B56
:1051400090E590931E0792E390932C0591E3909342
:10515000FD070C94F92790E39093210990E0909338
:10516000300690E0909331068091310690913006A0
:1051700090938B0080938A0090E09093360790E3A1
:105180009093370790E390931E079F9390E09130A0
:1051900031F490910B01906490930B0105C09091B4
:1051A0000B019F7B90930B019F9190910B019B7F33
:1051B00090930B015C9880E090E0909301078093BE
:1051C000000791E390935E0B90E390935F0B80E078
:1051D00090E090938D0080938C0080E090E090931D
:1051E0002B0180932A0180E090E090932D01809321
:1051F0002C0190E39093FD0790E090934F0798E087
:105200009093530791E09093540780E096E090606C
:1052100090609093C20088616898709A699A719AB8
:1052200080648093C10090E09093C00085E090E09E
:105230009093C5008093C40094E5909300089091EA
:105240001304909301089091120490930208909196
:105250001104909303089091100490930408909186
:105260001B049093050890911A049093060890915E
:10527000190490930708909118049093080890914E
:105280001F049093090890911E0490930A0890912E
:105290001D0490930B0890911C0490930C0890911E
:1052A000330790930D089091340790930E089AE07D
:1052B00090930F089FE09093550794E59093C60054
:1052C0000C94F9270E94192C90E090932707909155
:1052D000800890934804909181089093490490E548
:1052E000909356070C94F9270E94192C90E0909304
:1052F0004F0798E09093530791E09093540780E014
:1053000096E0906090609093C20088616898709A6F
:10531000699A719A80648093C10090E09093C00074
:1053200085E090E09093C5008093C40096E490934C
:10533000000890912C059093010894E39093020843
:105340009EE29093030892E3909304089EE2909368
:10535000050891E4909306089AE09093070897E077
:105360009093550796E49093C6000C94F92790E02B
:105370009093270790911E07903311F00C94B72B50
:10538000009126070093150900911509003311F4C7
:105390000C94092A013311F00C94B72B90E09093F0
:1053A0000B0694E690930A0680E797E19093010735
:1053B0008093000790E09093300690E09093310640
:1053C000809131069091300690938B0080938A00F3
:1053D0009AE490931E079F9390E0913031F490915E
:1053E0000B01906490930B0105C090910B019F7B82
:1053F00090930B019F9190910B019B7F90930B01D8
:105400005C9890E39093FA0791E390932C050C94A9
:10541000F92790E090930B0695E190930A0690E0AF
:105420009093300690E090933106809131069091F0
:10543000300690938B0080938A0090ED9093260B1A
:1054400097E09093270B91E39093FD0790E0909362
:105450000D0690E090930C0691E090930F0690EE6D
:1054600090930E0680910C0690910D0690932B015F
:1054700080932A0180910E0690910F0690932D0142
:1054800080932C0199E490931E079F9390E09130B4
:1054900031F490910B01906490930B0105C09091B1
:1054A0000B019F7B90930B019F9190910B019B7F30
:1054B00090930B015C9880E797E1909301078093AC
:1054C000000790E39093FA0791E390932C050C94D6
:1054D000F92790E0909327079091800890932D04EE
:1054E0009091810890932E049091820890932F04BC
:1054F00090918308909330049091840890933104A4
:10550000909185089093320490918608909333048B
:105510009091870890933404909188089093350473
:10552000909189089093360490918A08909337045B
:1055300090918B089093380490918C089093390443
:1055400090918D0890933A0490918E0890933B042B
:1055500090918F0890933C049091900890933D0413
:105560009091910890933E049091920890933F04FB
:1055700090919308909340049091940890934104E3
:1055800090919508909345049091960890934604C5
:10559000909197089093470493E4909356070C9446
:1055A000F92790E090932707909180089093150930
:1055B00090E390931E0700911509003311F40C94A9
:1055C000092A013311F40C94CE290C94F92790E0A8
:1055D0009093270790911E07993311F40C94B72BE1
:1055E00090911E07903511F40C94B72B90911E07E3
:1055F000983411F40C94B72B90911E079C3411F43D
:105600000C94B72B9091800890930004909181089E
:1056100090930404909182089093030490918308DE
:1056200090930204909184089093010490918508CE
:1056300090930804909186089093070490918708AE
:10564000909306049091880890930504909189089E
:1056500090930C0490918A0890930B0490918B087E
:1056600090930A0490918C089093090490918D086E
:1056700090930F0490918E0890930E0490918F0850
:1056800090930D0490919008909313049091910839
:105690009093120490919208909311049091930822
:1056A000909310049091940890931B049091950806
:1056B00090931A04909196089093190490919708EA
:1056C000909318049091980890931F0490919908D2
:1056D00090931E0490919A0890931D0490919B08BA
:1056E00090931C0490919C089093160490919D08AF
:1056F0009093150490919E089093140490919F08A4
:10570000909320049091A008909321049091A10877
:10571000909322049091A208909323049091A3085F
:10572000909324049091A408909325049091A50847
:10573000909326049091A608909327049091A7082F
:10574000909328049091A808909329049091A90817
:1057500090932A049091AA0890932B049091AB08FF
:1057600090932C049DE4909356070C94F92790E0B5
:1057700090934F0780E096E0906090609093C20015
:1057800088616898709A699A719A80648093C10060
:1057900090E09093C00085E090E09093C5008093E6
:1057A000C40095E49093000892E5909301089AE074
:1057B0009093020898E09093530791E090935407D8
:1057C00092E09093550795E49093C6000C94F927C6
:1057D00090E090934F0780E096E090609060909307
:1057E000C20088616898709A699A719A80648093FF
:1057F000C10090E09093C00085E090E09093C500D8
:105800008093C40095E49093000891E4909301087C
:105810009AE09093020898E09093530791E0909358
:10582000540792E09093550795E49093C6000C942A
:10583000F92790ED9093090797E090930A0791E07C
:1058400090930B079AE09093250798E0909391002E
:105850005D9808958F939F93AF93BF93CF93DF93FA
:105860009FB79F939AD09091080B903359F080E0A6
:1058700090E090938D0080938C0091E390932807A3
:105880000C94A52CB091030BA091040BA03090E2D6
:10589000B90720F0A0E0B0E20C94562CA73D94E1AB
:1058A000B90720F4A6EDB4E10C94562CC091460B38
:1058B000D091470BCA0FDB1FC093460BD093470B09
:1058C00028F49091480B93959093480B9091020B7C
:1058D0009A959093020B11F00C94A52CC091460B55
:1058E000D091470BA091480BA695D795C795A69543
:1058F000D795C795C093060BD093050BC75DD441D0
:10590000CC0FDD1FE0EBFBE0EC0FFD1F90E09BBF39
:10591000A591B491A456B04019F012F4A0E0B0E003
:10592000A0930A0BB093090B91E39093070B94E0BB
:105930009093020B90E09093460B90E09093470B6E
:1059400090E09093480B0E94512D9F919FBFDF9153
:10595000CF91BF91AF919F918F910895000000006A
:105960000000000000000000000000000000000037
:105970000000000000000000000000000000000027
:105980000000000000000000000000000000000017
:105990000000000000000000089591E5589A50981A
:1059A000599A51985998519A0E94AE2C5898509AE9
:1059B0000E94AE2C46D05898509A589A50980E94FF
:1059C000AE2C5898509A58D08093030B5898509A00
:1059D0005998519A0E94AE2C589A50980E94AE2C19
:1059E0005898509A599A519847D08093040B5898D8
:1059F000509A599A51980E94AE2C589A50980E94E9
:105A0000AE2C5898509A5998519A589A50980E948A
:105A1000AE2C599A51980E94AE2C9091030B907C19
:105A2000903039F0903849F49091030B9F73909324
:105A3000030B90E39093080B089591E39093080B68
:105A4000089588E05898509A991F98F40E94AE2CB7
:105A5000599A51980E94AE2C589A50980E94AE2C98
:105A60005898509A0E94AE2C8A9571F7599A51987D
:105A700008955998519AEECF88E05898509A0E940C
:105A8000AE2C589A50980E94AE2C8894499908944C
:105A9000991F5898509A0E94AE2C8A9581F7892FA9
:105AA000089598E19093C90090911E07903311F4E6
:105AB0000C94A22D90911E07983411F40C940F2E83
:105AC00090911E07993411F40C94112E90911E0799
:105AD0009C3411F40C94A22D90911E079A3411F469
:105AE0000C94132E90911E07933311F40C945D3097
:105AF00090915A0B913311F40C945D3090911E07E4
:105B0000993311F40C94BB2D90911E07913311F42D
:105B10000C94A82E90911E07923311F40C94033329
:105B200090911E07963311F40C94033390911E0745
:105B3000943311F40C942C3390911E07973311F485
:105B40000C94783098E99093C900089590E0909370
:105B5000300690E0909331068091310690913006A6
:105B600090938B0080938A0090E090938D009CE34B
:105B700090938C00E7CF9091FD07903311F40C9433
:105B8000F92D0091000710910107023390E01907E9
:105B900010F40C94D02D96E9909358070C94E42EB1
:105BA0009091E607903311F00C94033391E39093B6
:105BB000570796E99093580791E39093590791E31B
:105BC0009093E6070C94033390E39093E60780E00C
:105BD00090E090938D0080938C0080E090E0909313
:105BE0002B0180932A0180E090E090932D01809317
:105BF0002C0190E090938D0098E290938C0090E0BF
:105C0000909330069AE090933106809131069091FE
:105C1000300690938B0080938A000C94A22D0C94F4
:105C2000A22D0C943A2E90ED9093260B97E0909332
:105C3000270B91E39093FD0791E090930D0690EE72
:105C400090930C0690E090930F0690E090930E06D0
:105C500080910C0690910D0690932B0180932A0160
:105C600080910E0690910F0690932D0180932C0148
:105C70000C943A2E90E09093300690E09093310689
:105C8000809131069091300690938B0080938A002A
:105C90000E9433308D3290E0990710F40C94483014
:105CA0000E943330A091260BB091270BA456B04030
