:020000020000FC
:040000000C94777D68
:040024000C94686E62
:040054000C94E369BC
:040064000C9467731E
:04006C000C9430744C
:040080000C941E6E50
:040090000C94A76FB6
:1002000000000000000000000000000000000000EE
:1002100000000100010001000100010001000100D7
:1002200001000100010001000100010001000100C6
:1002300001000200020002000200020002000200AF
:10024000020002000200020002000200020002009E
:100250000200020003000300030003000300030088
:100260000300030003000300030003000300030076
:100270000300030003000400040004000400040061
:10028000040004000400040004000400040004004E
:100290000400040004000500050005000500050039
:1002A0000500050005000500050005000500050026
:1002B0000500050005000500060006000600060012
:1002C00006000600060006000600060006000600FE
:1002D00006000600060006000600070007000700EB
:1002E00007000700070007000700070007000700D6
:1002F00007000700070007000700080008000800C3
:1003000008000800080008000800080008000800AD
:10031000080008000800080008000800090009009B
:100320000900090009000900090009000900090085
:1003300009000900090009000900090009000A0074
:100340000A000A000A000A000A000A000A000A005D
:100350000A000A000A000A000A000A000A000B004C
:100360000B000B000B000B000B000B000B000B0035
:100370000B000B000B000B000B000B000B000B0025
:100380000C000C000C000C000C000C000C000C000D
:100390000C000C000C000C000C000C000C000C00FD
:1003A0000C000D000D000D000D000D000D000D00E6
:1003B0000D000D000D000D000D000D000D000D00D5
:1003C0000D000E000E000E000E000E000E000E00BE
:1003D0000E000E000E000E000E000E000E000E00AD
:1003E0000E000E000F000F000F000F000F000F0097
:1003F0000F000F000F000F000F000F000F000F0085
:100400000F000F000F00100010001000100010006F
:10041000100010001000100010001000100010005C
:100420001000100010001100110011001100110047
:100430001100110011001100110011001100110034
:100440001100110011001100120012001200120020
:10045000120012001200120012001200120012000C
:1004600012001200120012001200130013001300F9
:1004700013001300130013001300130013001300E4
:1004800013001300130013001300140014001400D1
:1004900014001400140014001400140014001400BC
:1004A00014001400140014001400140015001500AA
:1004B0001500150015001500150015001500150094
:1004C0001500150015001500150015001500160083
:1004D000160016001600160016001600160016006C
:1004E000160016001600160016001600160017005B
:1004F0001700170017001700170017001700170044
:100500001700170017001700170017001700170033
:10051000180018001800180018001800180018001B
:10052000180018001800180018001800180018000B
:1005300018001900190019001900190019001900F4
:1005400019001900190019001900190019001900E3
:1005500019001A001A001A001A001A001A001A00CC
:100560001A001A001A001A001A001A001A001A00BB
:100570001A001A001B001B001B001B001B001B00A5
:100580001B001B001B001B001B001B001B001B0093
:100590001B001B001B001C001C001C001C001C007E
:1005A0001C001C001C001C001C001C001C001C006B
:1005B0001C001C001C001D001D001D001D001D0056
:1005C0001D001D001D001D001D001D001D001D0043
:1005D0001D001D001D001D001E001E001E001E002F
:1005E0001E001E001E001E007800780078007800B3
:1005F000780078007800780078007800780078003B
:10060000780078007800780078007800780078002A
:10061000780078007800780078007800780078001A
:10062000780078007800780078007800780078000A
:1006300078007800780078007800780078007800FA
:1006400078007800780078007800780079007900E8
:1006500079007900790079007900790079007900D2
:1006600079007900790079007900790079007900C2
:1006700079007900790079007900790079007900B2
:1006800079007900790079007900790079007900A2
:100690007900790079007900790079007900790092
:1006A0007900790079007900790079007900790082
:1006B0007900790079007900790079007900790072
:1006C0007900790079007900790079007900790062
:1006D0007900790079007900790079007900790052
:1006E0007900790079007900790079007900790042
:1006F0007900790079007900790079007900790032
:100700007900790079007900790079007900790021
:10071000790079007A007A007A007A007A007A000B
:100720007A007A007A007A007A007A007A007A00F9
:100730007A007A007A007A007A007A007A007A00E9
:100740007A007A007A007A007A007A007A007A00D9
:100750007A007A007A007A007A007A007A007A00C9
:100760007A007A007A007A007A007A007A007A00B9
:100770007A007A007A007A007A007A007A007A00A9
:100780007A007A007A007A007A007A007A007A0099
:100790007A007A007A007A007A007A007A007A0089
:1007A0007A007A007A007A007A007A007A007A0079
:1007B0007A007A007A007A007A007A007A007A0069
:1007C0007A007A007A007A007A007A007A007A0059
:1007D0007A007A007A007A007A007A007B007B0047
:1007E0007B007B007B007B007B007B007B007B0031
:1007F0007B007B007B007B007B007B007B007B0021
:100800007B007B007B007B007B007B007B007B0010
:100810007B007B007B007B007B007B007B007B0000
:100820007B007B007B007B007B007B007B007B00F0
:100830007B007B007B007B007B007B007B007B00E0
:100840007B007B007B007B007B007B007B007B00D0
:100850007B007B007B007B007B007B007B007B00C0
:100860007B007B007B007B007B007B007B007B00B0
:100870007B007B007B007B007B007B007B007B00A0
:100880007B007B007B007B007B007B007B007B0090
:100890007B007B007B007B007B007B007B007B0080
:1008A0007B007B007C007C007C007C007C007C006A
:1008B0007C007C007C007C007C007C007C007C0058
:1008C0007C007C007C007C007C007C007C007C0048
:1008D0007C007C007C007C007C007C007C007C0038
:1008E0007C007C007C007C007C007C007C007C0028
:1008F0007C007C007C007C007C007C007C007C0018
:100900007C007C007C007C007B007C007C007C0008
:100910007C007C007C007C007C007C007C007C00F7
:100920007C007C007C007C007C007C007C007C00E7
:100930007C007C007C007C007C007C007C007C00D7
:100940007C007C007C007C007C007C007C007C00C7
:100950007C007C007C007C007C007C007C007C00B7
:100960007C007C007C007C007C007C007D007D00A5
:100970007D007D007D007D007D007D007D007D008F
:100980007D007D007D007D007D007D007D007D007F
:100990007D007D007D007D007D007D007D007D006F
:1009A0007D007D007D007D007D007D007D007D005F
:1009B0007D007D007D007D007D007D007D007D004F
:1009C0007D007D007D007D007D007D007D007D003F
:1009D0007800780078007800780078007800780057
:1009E0007800780078007800780078007800780047
:1009F0007800780078007800780078007800780037
:100A00007800780078007800780078007800780026
:100A10007800780078007800780078007800780016
:100A20007800780078007800780078007800780006
:100A300078007800790079007900790079007900F0
:100A400079007900790079007900790079007900DE
:100A500079007900790079007900790079007900CE
:100A600079007900790079007900790079007900BE
:100A700079007900790079007900790079007900AE
:100A8000790079007900790079007900790079009E
:100A9000790079007900790079007900790079008E
:100AA000790079007900790079007900790079007E
:100AB000790079007900790079007900790079006E
:100AC000790079007900790079007900790079005E
:100AD000790079007900790079007900790079004E
:100AE000790079007900790079007900790079003E
:100AF0007900790079007900790079007A007A002C
:100B00007A007A007A007A007A007A007A007A0015
:100B10007A007A007A007A007A007A007A007A0005
:100B20007A007A007A007A007A007A007A007A00F5
:100B30007A007A007A007A007A007A007A007A00E5
:100B40007A007A007A007A007A007A007A007A00D5
:100B50007A007A007A007A007A007A007A007A00C5
:100B60007A007A007A007A007A007A007A007A00B5
:100B70007A007A007A007A007A007A007A007A00A5
:100B80007A007A007A007A007A007A007A007A0095
:100B90007A007A007A007A007A007A007A007A0085
:100BA0007A007A007A007A007A007A007A007A0075
:100BB0007A007A007A007A007A007A007A007A0065
:100BC0007A007A007B007B007B007B007B007B004F
:100BD0007B007B007B007B007B007B007B007B003D
:100BE0007B007B007B007B007B007B007B007B002D
:100BF0007B007B007B007B007B007B007B007B001D
:100C00007B007B007B007B007B007B007B007B000C
:100C10007B007B007B007B007B007B007B007B00FC
:100C20007B007B007B007B007B007B007B007B00EC
:100C30007B007B007B007B007B007B007B007B00DC
:100C40007B007B007B007B007B007B007B007B00CC
:100C50007B007B007B007B007B007B007B007B00BC
:100C60007B007B007B007B007B007B007B007B00AC
:100C70007B007B007B007B007B007B007B007B009C
:100C80007B007B007B007B007B007B007C007C008A
:100C90007C007C007C007C007C007C007C007C0074
:100CA0007C007C007C007C007C007C007C007C0064
:100CB0007C007C007C007C007C007C007C007C0054
:100CC0007C007C007C007C007C007C007C007C0044
:100CD0007C007C007C007C007C007C007C007C0034
:100CE0007C007C007C007C007C007C007C007C0024
:100CF0007C007C007C007C007C007C007C007C0014
:100D00007C007C007C007C007C007C007C007C0003
:100D10007C007C007C007C007C007C007C007C00F3
:100D20007C007C007C007C007C007C007C007C00E3
:100D30007C007C007C007C007C007C007C007C00D3
:100D40007C007C007C007C007C007C007C007C00C3
:100D50007C007C007D007D007D007D007D007D00AD
:100D60007D007D007D007D007D007D007D007D009B
:100D70007D007D007D007D007D007D007D007D008B
:100D80007D007D007D007D007D007D007D007D007B
:100D90007D007D007D007D007D007D007D007D006B
:100DA0007D007D007D007D007D007D007D007D005B
:100DB0007D007D007D007D007D007D007D007D004B
:100DC0007D007D007D007D007D007D007D007D003B
:100DD0007D007D007D007D007D007D007D007D002B
:100DE0007D007D007D007D007D007D007D007D001B
:100DF0007D007D007D007D007D007D007D007D000B
:100E00007D007D007D007D007D007D007D007D00FA
:100E10007D007D007D007D007D007D007E007E00E8
:100E20007E007E007E007E007E007E007E007E00D2
:100E30007E007E007E007E007E007E007E007E00C2
:100E40007E007E007E007E007E007E007E007E00B2
:100E50007E007E007E007E007E007E007E007E00A2
:100E60007E007E007E007E007E007E007E007E0092
:100E70007E007E007E007E007E007E007E007E0082
:100E80007E007E007E007E007E007E007E007E0072
:100E90007E007E007E007E007E007E007E007E0062
:100EA0007E007E007E007E007E007E007E007E0052
:100EB0007E007E007E007E007E007E007E007E0042
:100EC0007E007E007E007E007E007E007E007E0032
:100ED0007E007E007E007E007E007E007E007E0022
:100EE0007E007E007F007F007F007F007F007F000C
:100EF0007F007F007F007F007F007F007F007F00FA
:100F00007F007F007F007F007F007F007F007F00E9
:100F10007F007F007F007F007F007F007F007F00D9
:100F20007F007F007F007F007F007F007F007F00C9
:100F30007F007F007F007F007F007F007F007F00B9
:100F40007F007F007F007F007F007F007F007F00A9
:100F50007F007F007F007F007F007F007F007F0099
:100F60007F007F007F007F007F007F007F007F0089
:100F70007F007F007F007F007F007F007F007F0079
:100F80007F007F007F007F007F007F007F007F0069
:100F90007F007F007F007F007F007F007F007F0059
:100FA0007F007F007F007F007F007F008000800047
:100FB0008000800080008000800080008000800031
:100FC0008000800080008000800080008000800021
:100FD0008000800080008000800080008000800011
:100FE0008000800080008000800080008000800001
:100FF00080008000800080008000800080008000F1
:1010000080008000800080008000800080008000E0
:1010100080008000800080008000800080008000D0
:1010200080008000800080008000800080008000C0
:1010300080008000800080008000800080008000B0
:1010400080008000800080008000800080008000A0
:101050008000800080008000800080008000800090
:101060008000800080008000800080008000800080
:10107000800080008100810081008100810081006A
:101080008100810081008100810081008100810058
:101090008100810081008100810081008100810048
:1010A0008100810081008100810081008100810038
:1010B0008100810081008100810081008100810028
:1010C0008100810081008100810081008100810018
:1010D0008100810081008100800081008100810009
:1010E00081008100810081008100810081008100F8
:1010F00081008100810081008100810081008100E8
:1011000081008100810081008100810081008100D7
:1011100081008100810081008100810081008100C7
:1011200081008100810081008100810081008100B7
:1011300081008100810081008100810082008200A5
:10114000820082008200820082008200820082008F
:10115000820082008200820082008200820082007F
:10116000820082008200820082008200820082006F
:10117000820082008200820082008200820082005F
:10118000820082008200820082008200820082004F
:10119000820082008200820082008200820082003F
:1011A000820082008200820082008200820082002F
:1011B000820082008200820082008200820082001F
:1011C000820082008200820082008200820082000F
:1011D00082008200820082008200820082008200FF
:1011E00082008200820082008200820082008200EF
:1011F00082008200820082008200820082008200DF
:1012000082008200830083008300830083008300C8
:1012100083008300830083008300830083008300B6
:1012200083008300830083008300830083008300A6
:101230008300830083008300830083008300830096
:101240008300830083008300830083008300830086
:101250008300830083008300830083008300830076
:101260008300830083008300830083008300830066
:101270008300830083008300830083008300830056
:101280008300830083008300830083008300830046
:101290008300830083008300830083008300830036
:1012A0008300830083008300830083008300830026
:1012B0008300830083008300830083008300830016
:1012C0008300830083008300830083008400840004
:1012D00084008400840084008400840084008400EE
:1012E00084008400840084008400840084008400DE
:1012F00084008400840084008400840084008400CE
:1013000084008400840084008400840084008400BD
:1013100084008400840084008400840084008400AD
:10132000840084008400840084008400840084009D
:10133000840084008400840084008400840084008D
:10134000840084008400840084008400840084007D
:10135000840084008400840084008400840084006D
:10136000840084008400840084008400840084005D
:10137000840084008400840084008400840084004D
:10138000840084008400840084008400840084003D
:101390008400840085008500850085008500850027
:1013A0008500850085008500850085008500850015
:1013B0008500850085008500850085008500850005
:1013C00085008500850085008500850085008500F5
:1013D00085008500850085008500850085008500E5
:1013E00085008500850085008500850085008500D5
:1013F00085008500850085008500850085008500C5
:1014000085008500850085008500850085008500B4
:1014100085008500850085008500850085008500A4
:101420008500850085008500850085008500850094
:101430008500850085008500850085008500850084
:101440008500850085008500850085008500850074
:101450008500850085008500850085008600860062
:10146000860086008600860086008600860086004C
:10147000860086008600860086008600860086003C
:10148000860086008600860086008600860086002C
:10149000860086008600860086008600860086001C
:1014A000860086008600860086008600860086000C
:1014B00086008600860086008600860086008600FC
:1014C00086008600860086008600860086008600EC
:1014D00086008600860086008600860086008600DC
:1014E00086008600860086008600860086008600CC
:1014F00086008600860086008600860086008600BC
:1015000086008600860086008600860086008600AB
:10151000860086008600860086008600860086009B
:101520008600860087008700870087008700870085
:101530008700870087008700870087008700870073
:101540008700870087008700870087008700870063
:101550008700870087008700870087008700870053
:101560008700870087008700870087008700870043
:101570008700870087008700870087008700870033
:101580008700870087008700870087008700870023
:101590008700870087008700870087008700870013
:1015A0008700870087008700870087008700870003
:1015B00087008700870087008700870087008700F3
:1015C00087008700870087008700870087008700E3
:1015D00087008700870087008700870087008700D3
:1015E00087008700870087008700870088008800C1
:1015F00088008800880088008800880088008800AB
:10160000880088008800880088008800880088009A
:10161000880088008800880088008800880088008A
:10162000880088008800880088008800880088007A
:10163000880088008800880088008800880088006A
:10164000880088008800880088008800880088005A
:10165000880088008800880088008800880088004A
:10166000880088008800880088008800880088003A
:10167000880088008800880088008800880088002A
:10168000880088008800880088008800880088001A
:10169000880088008800880088008800880088000A
:1016A00088008800880088008800880088008800FA
:1016B00088008800890089008900890089008900E4
:1016C00089008900890089008900890089008900D2
:1016D00089008900890089008900890089008900C2
:1016E00089008900890089008900890089008900B2
:1016F00089008900890089008900890089008900A2
:101700008900890089008900890089008900890091
:101710008900890089008900890089008900890081
:101720008900890089008900890089008900890071
:101730008900890089008900890089008900890061
:101740008900890089008900890089008900890051
:101750008900890089008900890089008900890041
:101760008900890089008900890089008900890031
:101770008900890089008900890089008A008A001F
:101780008A008A008A008A008A008A008A008A0009
:101790008A008A008A008A008A008A008A008A00F9
:1017A0008A008A008A008A008A008A008A008A00E9
:1017B0008A008A008A008A008A008A008A008A00D9
:1017C0008A008A008A008A008A008A008A008A00C9
:1017D0008A008A008A008A008A008A008A008A00B9
:1017E0008A008A008A008A008A008A008A008A00A9
:1017F0008A008A008A008A008A008A008A008A0099
:101800008A008A008A008A008A008A008A008A0088
:101810008A008A008A008A008A008A008A008A0078
:101820008A008A008A008A008A008A008A008A0068
:101830008A008A008A008A008A008A008A008A0058
:101840008A008A008B008B008B008B008B008B0042
:101850008B008B008B008B008B008B008B008B0030
:101860008B008B008B008B008B008B008B008B0020
:101870008B008B008B008B008B008B008B008B0010
:101880008B008B008B008B008B008B008B008B0000
:101890008B008B008B008B008B008B008B008B00F0
:1018A0008B008B008B008B008B008B008B008B00E0
:1018B0008B008B008B008B008B008B008B008B00D0
:1018C0008B008B008B008B008B008B008B008B00C0
:1018D0008B008B008B008B008B008B008B008B00B0
:1018E0008B008B008B008B008B008B008B008B00A0
:1018F0008B008B008B008B008B008B008B008B0090
:101900008B008B008B008B008B008B008C008C007D
:101910008C008C008C008C008C008C008C008C0067
:101920008C008C008C008C008C008C008C008C0057
:101930008C008C008C008C008C008C008C008C0047
:101940008C008C008C008C008C008C008C008C0037
:101950008C008C008C008C008C008C008C008C0027
:101960008C008C008C008C008C008C008C008C0017
:101970008C008C008C00780078007800780078006B
:10198000790079007900790079007900790079008F
:10199000790079007A007A007A007A007A007A0079
:1019A0007A007A007A007A007B007B007B007B0063
:1019B0007B007B007B007B007B007B007C007C004D
:1019C0007C007C007C007C007C007C007C007C0037
:1019D0007D007D007D007D007D007D007D007D001F
:1019E0007D007D007E007E007E007E007E007E0009
:1019F0007E007E007E007E007F007F007F007F00F3
:101A00007F007F007F007F007F007F0080008000DC
:101A100080008000800080008000800080008000C6
:101A200081008100810081008100810081008100AE
:101A30008100810082008200820082008200820098
:101A40008200820082008200820082008200820086
:101A5000820083008300830083008300830083006F
:101A6000830083008300830083008300830083005E
:101A7000830083008300830083008400840084004B
:101A80008400840084008400840084008400840036
:101A90008400840084008400840084008400840026
:101AA000840085008500850085008500850085000F
:101AB00085008500850085008500850085008500FE
:101AC00085008500850085008500860086008600EB
:101AD00086008600860086008600860086008600D6
:101AE00086008600860086008600860086008600C6
:101AF00086008700870087008700870087008700AF
:101B0000870087008700870087008700870087009D
:101B1000870087008700870087008800880088008A
:101B20008800880088008800880088008800880075
:101B30008800880088008800880088008800880065
:101B4000880089008900890089008900890089004E
:101B5000890089008900890089008900890089003D
:101B6000890089008900890089008A008A008A002A
:101B70008A008A008A008A008A008A008A008A0015
:101B80008A008A008A008A008A008A008A008A0005
:101B90008A008B008B008B008B008B008B008B00EE
:101BA0008B008B008B008B008B008B008B008B00DD
:101BB0008B008B008B008B008B008C008C008C00CA
:101BC0008C008C008C008C008C008C008C008C00B5
:101BD0008C008C008C008C008C008C008C008C00A5
:101BE0008C008D008D008D008D008D008D008D008E
:101BF0008D008D008D008D008D008D008D008D007D
:101C00008D008D008D008D008D008E008E008E0069
:101C10008E008E008E008E008E008E008E008E0054
:101C20008E008E008E008E008E008E008E008E0044
:101C30008E008F008F008F008F008F008F008F002D
:101C40008F008F008F008F008F008F008F008F001C
:101C50008F008F008F008F008F0090009000900009
:101C600090009000900090009000900090009000F4
:101C700090009000900090009000900090009000E4
:101C800090009100910091009100910091009100CD
:101C900091009100910091009100910091009100BC
:101CA00091009100910091009100920092009200A9
:101CB0009200920092009200920092009200920094
:101CC0009200920092009200920092009200920084
:101CD000920093009300930093009300930093006D
:101CE000930093009300930093009300930093005C
:101CF0009300930093009300930094009400940049
:101D00009400940094009400940094009400940033
:101D10009400940094009400940094009400940023
:101D2000940095009500950095009500950095000C
:101D300095009500950095009500950095009500FB
:101D400095009500950095009500960096009600E8
:101D500096009600960096009600960096009600D3
:101D600096009600960096009600960096009600C3
:101D700096009700970097009700970097009700AC
:101D8000970097009700970097009700970097009B
:101D90009700970097009700970098009800980088
:101DA0009800980098009800980098009800980073
:101DB0009800980098009800980098009800980063
:101DC000980099009900990099009900990099004C
:101DD000990099009900990099009900990099003B
:101DE000990099009900990099009A009A009A0028
:101DF0009A009A009A009A009A009A009A009A0013
:101E00009A009A009A009A009A009A009A009A0002
:101E10009A009B009B009B009B009B009B009B00EB
:101E20009B009B009B009B009B009B009B009B00DA
:101E30009B009B009B009B009B009B009B009B00CA
:101E40009B009B009B009B009C009C009C009C00B6
:101E50009C009C009C009C009C009C009C009C00A2
:101E60009C009C009C009C009C009C009C009C0092
:101E70009C009C009C009C009C009C009C009C0082
:101E80009C009C009C009C009C009D009D009D006F
:101E90009D009D009D009D009D009D009D009D005A
:101EA0009D009D009D009D009D009D009D009D004A
:101EB0009D009D009D009D009D009D009D009D003A
:101EC0009D009D009D009D009D009D009D009E0029
:101ED0009E009E009E009E009E009E009E009E0012
:101EE0009E009E009E009E009E009E009E009E0002
:101EF0009E009E009E009E009E009E009E009E00F2
:101F00009E009E009E009E009E009E009E009E00E1
:101F10009F009F009F009F009F009F009F009F00C9
:101F20009F009F009F009F009F009F009F009F00B9
:101F30009F009F009F009F009F009F009F009F00A9
:101F40009F009F009F009F009F009F009F009F0099
:101F50009F00A000A000A000A000A000A000A00082
:101F6000A000A000A000A000A000A000A000A00071
:101F7000A000A000A000A000A000A000A000A00061
:101F8000A000A000A000A000A000A000A000A00051
:101F9000A000A000A000A100A100A100A100A1003C
:101FA000A100A100A100A100A100A100A100A10029
:101FB000A100A100A100A100A100A100A100A10019
:101FC000A100A100A100A100A100A100A100A10009
:101FD000A100A100A100A100A200A200A200A200F5
:101FE000A200A200A200A200A200A200A200A200E1
:101FF000A200A200A200A200A200A200A200A200D1
:10200000A200A200A200A200A200A200A200A200C0
:10201000A200A200A200A200A200A300A300A300AD
:10202000A300A300A300A300A300A300A300A30098
:10203000A300A300A300A300A300A300A300A30088
:10204000A300A300A300A300A300A300A300A30078
:10205000A300A300A300A300A300A300A300A40067
:10206000A400A400A400A400A400A400A400A40050
:10207000A400A400A400A400A400A400A400A10043
:10208000A400A400A400A400A400A400A400A40030
:10209000A400A400A400A400A400A400A400A40020
:1020A000A500A500A500A500A500A500A500A50008
:1020B000A500A500A500A500A500A500A500A500F8
:1020C000A500A500A500A500A500A500A500A500E8
:1020D000A500A500A500A500A500A500A500A500D8
:1020E000A500A600A600A600A600A600A600A600C1
:1020F000A600A600A600A600A600A600A600A600B0
:10210000A600A600A600A600A600A600A600A6009F
:10211000A600A600A600A600A600A600A600A6008F
:10212000A600A600A600A700A700A700A700A7007A
:10213000A700A700A700A700A700A700A700A70067
:10214000A700A700A700A700A700A700A700A70057
:10215000A700A700A700A700A700A700A700A70047
:10216000A700A700A700A700A800A800A800A80033
:10217000A800A800A800A800A800A800A800A8001F
:10218000A800A800A800A800A800A800A800A8000F
:10219000A800A800A800A800A800A800A800A800FF
:1021A000A800A800A800A800A800A900A900A900EC
:1021B000A900A900A900A900A900A900A900A900D7
:1021C000A900A900A900A900A900A900A900A900C7
:1021D000A900A900A900A900A900A900A900A900B7
:1021E000A900A900A900A900A900A900A900AA00A6
:1021F000AA00AA00AA00AA00AA00AA00AA00AA008F
:10220000AA00AA00AA00AA00AA00AA00AA00AA007E
:10221000AA00AA00AA00AA00AA00AA00AA00AA006E
:10222000AA00AA00AA00AA00AA00AA00AA00AA005E
:10223000AB00AB00AB00AB00AB00AB00AB00AB0046
:10224000AB00AB00AB00AB00AB00AB00AB00AB0036
:10225000AB00AB00AB00AB00AB00AB00AB00AB0026
:10226000AB00AB00AB00AB00AB00AB00AB00AB0016
:10227000AB00AC00AC00AC00AC00AC00AC00AC00FF
:10228000AC00AC00AC00AC00AC00AC00AC00AC00EE
:10229000AC00AC00AC00AC00AC00AC00AC00AC00DE
:1022A000AC00AC00AC00AC00AC00AC00AC00AC00CE
:1022B000AC00AC00AC00AD00AD00AD00AD00AD00B9
:1022C000AD00AD00AD00AD00AD00AD00AD00AD00A6
:1022D000AD00AD00AD00AD00AD00AD00AD00AD0096
:1022E000AD00AD00AD00AD00AD00AD00AD00AD0086
:1022F000AD00AD00AD00AD00AE00AE00AE00AE0072
:10230000AE00AE00AE00AE00AE00AE00AE00AE005D
:10231000AE00AE00AE00AE00AE00AE00AE00AE004D
:10232000AE00AE00AE00AE00AE00AE00AE00AE003D
:10233000AE00AE00AE00AE00AE00AF00AF00AF002A
:10234000AF00AF00AF00AF00AF00AF00AF00AF0015
:10235000AF00AF00AF00AF00AF00AF00AF00AF0005
:10236000AF00AF00AF00AF00AF00AF00AF00AF00F5
:10237000AF00AF00AF00AF00AF00AF00AF00B000E4
:10238000B000B000B000B000B000B000B000B000CD
:10239000B000B000B000B000B000B000B000B000BD
:1023A000B000B000B000B000B000B000B000B000AD
:1023B000B000B000B000B000B000B000B000B0009D
:1023C000B100B100B100B100B100B100B100B10085
:1023D000B100B100B100B100B100B100B100B10075
:1023E000B100B100B100B100B100B100B100B10065
:1023F000B100B100B100B100B100B100B100B10055
:10240000B100B200B200B200B200B200B200B2003D
:10241000B200B200B200B200B200B200B200B2002C
:10242000B200B200B200B200B200B200B200B2001C
:10243000B200B200B200B200B200B200B200B2000C
:10244000B200B200B200B300B300B300B300B300F7
:10245000B300B300B300B300B300B300B300B300E4
:10246000B300B300B300B300B300B300B300B300D4
:10247000B300B300B300B300B300B300B300B300C4
:10248000B300B300B300B300B400B400B400B400B0
:10249000B400B400B400B400B400B400B400B4009C
:1024A000B400B400B400B400B400B400B400B4008C
:1024B000B400B400B400B400B400B400B400B4007C
:1024C000B400B400B400B400B400B500B500B50069
:1024D000B500B500B500B500B500B500B500B50054
:1024E000B500B500B500B500B500B500B500B50044
:1024F000B500B500B500B500B500B500B500B50034
:10250000B500B500B500B500B500B500B500B60022
:10251000B600B600B600B600B600B600B600B6000B
:10252000B600B600B600B600B600B600B600B600FB
:10253000B600B600B600B600B600B600B600B600EB
:10254000B600B600B600B600B600B600B600B600DB
:10255000B700B700B700B700B700B700B700B700C3
:10256000B700B700B700B700B700B700B700B700B3
:10257000B700B700B700B700B700B700B700B700A3
:10258000B700B700B700B700B700B700B700B70093
:10259000B700B800B800B800B800B800B800B8007C
:1025A000B800B800B800B800B800B800B800B8006B
:1025B000B800B800B800B800B800B800B800B8005B
:1025C000B800B800B800B800B800B800B800B8004B
:1025D000B800B800B800B900B900B900B900B90036
:1025E000B900B900B900B900B900B900B900B90023
:1025F000B900B900B900B900B900B900B900B90013
:10260000B900B900B900B900B900B900B900B90002
:10261000B900B900B900B900BA00BA00BA00BA00EE
:10262000BA00BA00BA00BA00BA00BA00BA00BA00DA
:10263000BA00BA00BA00BA00BA00BA00BA00BA00CA
:10264000BA00BA00BA00BA00BA00BA00BA00BA00BA
:10265000BA00BA00BA00BA00BA00BB00BB00BB00A7
:10266000BB00BB00BB00BB00BB00BB00BB00BB0092
:10267000BB00BB00BB00BB00BB00BB00BB00BB0082
:10268000BB00BB00BB00BB00BB00BB00BB00BB0072
:10269000BB00BB00BB00BB00BB00BB00BB00BC0061
:1026A000BC00BC00BC00BC00BC00BC00BC00BC004A
:1026B000BC00BC00BC00BC00BC00BC00BC00BC003A
:1026C000BC00BC00BC00BC00BC00BC00BC00BC002A
:1026D000BC00BC00BC00BC00BC00BC00BC00BC001A
:1026E000BD00BD00BD00BD00BD00BD00BD00BD0002
:1026F000BD00BD00BD00BD00BD00BD00BD00BD00F2
:10270000BD00BD00BD00BD00BD00BD00BD00BD00E1
:10271000BD00BD00BD00BD00BD00BD00BD00BD00D1
:10272000BD00BE00BE00BE00BE00BE00BE00BE00BA
:10273000BE00BE00BE00BE00BE00BE00BE00BE00A9
:10274000BE00BE00BE00BE00BE00BE00BE00BE0099
:10275000BE00BE00BE00BE00BE00BE00BE00BE0089
:10276000BE00BE00BE00BF00BF00BF00BF00BF0074
:10277000BF00BF00BF00BF00BF00BF00BF00BF0061
:10278000BF00BF00BF00BF00BF00BF00BF00BF0051
:10279000BF00BF00BF00BF00BF00BF00BF00BF0041
:1027A000BF00BF00BF00BF00C000C000C000C0002D
:1027B000C000C000C000C000C000C000C000C00019
:1027C000C000C000C000C000C000C000C000C00009
:1027D000C000C000C000C000C000C000C000C000F9
:1027E000C000C000C000C000C000C100C100C100E6
:1027F000C100C100C100C100C100C100C100C100D1
:10280000C100C100C100C100C100C100C100C100C0
:10281000C100C100C100C100C100C100C100C100B0
:10282000C100C100C100C100C100C100C100C2009F
:10283000C200C200C200C200C200C200C200C20088
:10284000C200C200C200C200C200C200C200BF007B
:10285000C200C200C200C200C200C200C200C20068
:10286000C200C200C200C200C200C200C200C20058
:10287000C300C300C300C300C300C300C300C30040
:10288000C300C300C300C300C300C300C300C30030
:10289000C300C300C300C300C300C300C300C30020
:1028A000C300C300C300C300C300C300C300C30010
:1028B000C300C400C400C400C400C400C400C400F9
:1028C000C400C400C400C400C400C400C400C400E8
:1028D000C400C400C400C400C400C400C400C400D8
:1028E000C400C400C400C400C400C400C400C400C8
:1028F000C400C400C400C500C500C500C500C500B3
:10290000C500C500C500C500C500C500C500C5009F
:10291000C500C500C500C500C500C500C500C5008F
:10292000C500C500C500C500C500C500C500C5007F
:10293000C500C500C500C500C600C600C600C6006B
:10294000C600C600C600C600C600C600C600C60057
:10295000C600C600C600C600C600C600C600C60047
:10296000C600C600C600C600C600C600C600C60037
:10297000C600C600C600C600C600C700C700C70024
:10298000C700C700C700C700C700C700C700C7000F
:10299000C700C700C700C700C700C700C700C700FF
:1029A000C700C700C700C700C700C700C700C700EF
:1029B000C700C700C700C700C700C700C700C800DE
:1029C000C800C800C800C800C800C800C800C800C7
:1029D000C800C800C800C800C800C800C800C800B7
:1029E000C800C800C800C800C800C800C800C800A7
:1029F000C800C800C800C800C800C800C800C80097
:102A0000C900C900C900C900C900C900C900C9007E
:102A1000C900C900C900C900C900C900C900C9006E
:102A2000C900C900C900C900C900C900C900C9005E
:102A3000C900C900C900C900C900C900C900C9004E
:102A4000C900CA00CA00CA00CA00CA00CA00CA0037
:102A5000CA00CA00CA00CA00CA00CA00CA00CA0026
:102A6000CA00CA00CA00CA00CA00CA00CA00CA0016
:102A7000CA00CA00CA00CA00CA00CA00CA00CA0006
:102A8000CA00CA00CA00CB00CB00CB00CB00CB00F1
:102A9000CB00CB00CB00CB00CB00CB00CB00CB00DE
:102AA000CB00CB00CB00CB00CB00CB00CB00CB00CE
:102AB000CB00CB00CB00CB00CB00CB00CB00CB00BE
:102AC000CB00CB00CB00CB00CC00CC00CC00CC00AA
:102AD000CC00CC00CC00CC00CC00CC00CC00CC0096
:102AE000CC00CC00CC00CC00CC00CC00CC00CC0086
:102AF000CC00CC00CC00CC00CC00CC00CC00CC0076
:102B0000CC00CC00CC00CC00CC00CD00CD00CD0062
:102B1000CD00CD00CD00CD00CD00CD00CD00CD004D
:102B2000CD00CD00CD00CD00CD00CD00CD00CD003D
:102B3000CD00CD00CD00CD00CD00CD00CD00CD002D
:102B4000CD00CD00CD00CD00CD00CD00CD00CE001C
:102B5000CE00CE00CE00CE00CE00CE00CE00CE0005
:102B6000CE00CE00CE00CE00CE00CE00CE00CE00F5
:102B7000CE00CE00CE00CE00CE00CE00CE00CE00E5
:102B8000CE00CE00CE00CE00CE00CE00CE00CE00D5
:102B9000CF00CF00CF00CF00CF00CF00CF00CF00BD
:102BA000CF00CF00CF00CF00CF00CF00CF00CF00AD
:102BB000CF00CF00CF00CF00CF00CF00CF00CF009D
:102BC000CF00CF00CF00CF00CF00CF00CF00CF008D
:102BD000CF00D000D000D000D000D000D000D00076
:102BE000D000D000D000D000D000D000D000D00065
:102BF000D000D000D000D000D000D000D000D00055
:102C0000D000D000D000D000D000D000D000D00044
:102C1000D000D000D000D100D100D100D100D1002F
:102C2000D100D100D100D100D100D100D100D1001C
:102C3000D100D100D100D100D100D100D100D1000C
:102C4000D100D100D100D100D100D100D100D100FC
:102C5000D100D100D100D100D200D200D200D200E8
:102C6000D200D200D200D200D200D200D200D200D4
:102C7000D200D200D200D200D200D200D200D200C4
:102C8000D200D200D200D200D200D200D200D200B4
:102C9000D200D200D200D200D200D300D300D300A1
:102CA000D300D300D300D300D300D300D300D3008C
:102CB000D300D300D300D300D300D300D300D3007C
:102CC000D300D300D300D300D300D300D300D3006C
:102CD000D300D300D300D300D300D300D300D4005B
:102CE000D400D400D400D400D400D400D400D40044
:102CF000D400D400D400D400D400D400D400D40034
:102D0000D400D400D400D400D400D400D400D40023
:102D1000D400D500D500D500D500D500D500D5000C
:102D2000D500D500D500D500D500D500D500D500FB
:102D3000D500D500D500D500D500D600D600D600E8
:102D4000D600D600D600D600D600D600D600D600D3
:102D5000D600D600D600D600D600D600D600D600C3
:102D6000D600D700D700D700D700D700D700D700AC
:102D7000D700D700D700D700D700D700D700D7009B
:102D8000D700D700D700D700D700D800D800D80088
:102D9000D800D800D800D800D800D800D800D80073
:102DA000D800D800D800D800D800D800D800D80063
:102DB000D800D900D900D900D900D900D900D9004C
:102DC000D900D900D900D900D900D900D900D9003B
:102DD000D900D900D900D900D900DA00DA00DA0028
:102DE000DA00DA00DA00DA00DA00DA00DA00DA0013
:102DF000DA00DA00DA00DA00DA00DA00DA00DA0003
:102E0000DA00DB00DB00DB00DB00DB00DB00DB00EB
:102E1000DB00DB00DB00DB00DB00DB00DB00DB00DA
:102E2000DB00DB00DB00DB00DB00DC00DC00DC00C7
:102E3000DC00DC00DC00DC00DC00DC00DC00DC00B2
:102E4000DC00DC00DC00DC00DC00DC00DC00DC00A2
:102E5000DC00DD00DD00DD00DD00DD00DD00DD008B
:102E6000DD00DD00DD00DD00DD00DD00DD00DD007A
:102E7000DD00DD00DD00DD00DD00DE00DE00DE0067
:102E8000DE00DE00DE00DE00DE00DE00DE00DE0052
:102E9000DE00DE00DE00DE00DE00DE00DE00DE0042
:102EA000DE00DF00DF00DF00DF00DF00DF00DF002B
:102EB000DF00DF00DF00DF00DF00DF00DF00DF001A
:102EC000DF00DF00DF00DF00DF00E000E000E00007
:102ED000E000E000E000E000E000E000E000E000F2
:102EE000E000E000E000E000E000E000E000E000E2
:102EF000E000E100E100E100E100E100E100E100CB
:102F0000E100E100E100E100E100E100E100E100B9
:102F1000E100E100E100E100E100E200E200E200A6
:102F2000E200E200E200E200E200E200E200E20091
:102F3000E200E200E200E200E200E200E200E20081
:102F4000E200E300E300E300E300E300E300E3006A
:102F5000E300E300E300E300E300E300E300E30059
:102F6000E300E300E300E300E300E400E400E40046
:102F7000E400E400E400E400E400E400E400E40031
:102F8000E400E400E400E400E400E400E400E40021
:102F9000E400E500E500E500E500E500E500E5000A
:102FA000E500E500E500E500E500E500E500E500F9
:102FB000E500E500E500E500E500E600E600E600E6
:102FC000E600E600E600E600E600E600E600E600D1
:102FD000E600E600E600E600E600E600E600E600C1
:102FE000E600E700E700E700E700E700E700E700AA
:102FF000E700E700E700E700E700E700E700E70099
:10300000E700E700E700E700E700E800E800E80085
:10301000E800E800E800E800E800E800E800E80070
:10302000E800E800E800E800E800E800E800E80060
:10303000E800E900E900E900E900E900E900E90049
:10304000E900E900E900E900E900E900E900E90038
:10305000E900E900E900E900E900EA00EA00EA0025
:10306000EA00EA00EA00EA00EA00EA00EA00EA0010
:10307000EA00EA00EA00EA00EA00EA00EA00EA0000
:10308000EA00EB00EB00EB00EB00EB00EB00EB00E9
:10309000EB00EB00EB00EB00EB00EB00EB00EB00D8
:1030A000EB00EB00EB00EB00EB00EC00EC00EC00C5
:1030B000EC00EC00EC00EC00EC00EC00EC00EC00B0
:1030C000EC00EC00EC00EC00EC00EC00EC00EC00A0
:1030D000EC00ED00ED00ED00ED00ED00ED00ED0089
:1030E000ED00ED00ED00ED00ED00ED00140014002A
:1030F0001400140014001400140014001400140030
:10310000140014001400140014001400140014001F
:10311000140014001400140014001400140014000F
:1031200014001400140014001400140014001400FF
:1031300014001400140014001400140014001400EF
:1031400014001400140014001400140014001400DF
:1031500014001400140014001400140014001400CF
:1031600014001400140014001400140014001400BF
:1031700014001400140014001400140014001400AF
:10318000140014001400140014001400140014009F
:10319000140014001400140014001400140014008F
:1031A000140014001400140014001400140014007F
:1031B000140014001400140014001400140014006F
:1031C000140014001400140014001400140014005F
:1031D0001400140015001500150015001500150049
:1031E0001500150015001500150015001500150037
:1031F0001500150015001500150015001500150027
:103200001500150015001500150015001500150016
:103210001500150015001500150015001500150006
:1032200015001500150015001500150015001500F6
:1032300015001500150015001500150015001500E6
:1032400015001500150015001500150015001500D6
:1032500015001500150015001500150015001500C6
:1032600015001500150015001500150015001500B6
:1032700015001500150015001500150015001500A6
:103280001500150015001500150015001500150096
:103290001500150015001500150015001500150086
:1032A0001500150015001500150015001500150076
:1032B0001500150015001500150015001500150066
:1032C0001500150015001500150015001500150056
:1032D0001500150015001500150015001500150046
:1032E0001500150015001500150015001500150036
:1032F0001500150015001500150015001500150026
:103300001500150015001500150015001500150015
:103310001500150015001500150015001500150005
:1033200015001500150015001500150015001500F5
:1033300015001500150015001500150015001500E5
:1033400015001500150015001500150015001500D5
:1033500015001500150015001500150015001500C5
:1033600015001500150015001500150015001500B5
:1033700015001500150015001500150015001500A5
:103380001500150015001500150015001500150095
:103390001500150015001500150015001500150085
:1033A0001500150015001600160016001600160070
:1033B000160016001600160016001600160016005D
:1033C000160016001600160016001600160016004D
:1033D000160016001600160016001600160016003D
:1033E000160016001600160016001600160016002D
:1033F000160016001600160016001600160016001D
:10340000160016001600160016001600160016000C
:1034100016001600160016001600160016001600FC
:1034200016001600160016001600160016001600EC
:1034300016001600160016001600160016001600DC
:1034400016001600160016001600160016001600CC
:1034500016001600160016001600160016001600BC
:1034600016001600160016001600160016001600AC
:10347000160016001600160016001600160016009C
:10348000160016001600160016001600160016008C
:10349000160016001600160016001600160016007C
:1034A000160016001600160016001600160016006C
:1034B000160016001600160016001600160016005C
:1034C000160016001600160016001600160016004C
:1034D000160016001600160016001600160016003C
:1034E000160016001600160016001600160016002C
:1034F000160016001600160016001600160016001C
:10350000160016001600160016001600160016000B
:1035100016001600160016001600160016001600FB
:1035200016001600160016001600160016001600EB
:1035300016001600160016001600160016001600DB
:1035400016001600160016001600160016001600CB
:1035500016001600160016001600160016001600BB
:1035600016001600160016001600160016001600AB
:103570001600160016001600160017001700170098
:103580001700170017001700170017001700170083
:103590001700170017001700170017001700170073
:1035A0001700170017001700170017001700170063
:1035B0001700170017001700170017001700170053
:1035C0001700170017001700170017001700170043
:1035D0001700170017001700170017001700170033
:1035E0001700170017001700170017001700170023
:1035F0001700170017001700170017001700170013
:103600001700170017001700170017001700170002
:1036100017001700170017001700170017001700F2
:1036200017001700170017001700170017001700E2
:1036300017001700170017001700170017001700D2
:1036400017001700170017001700170017001700C2
:1036500017001700170017001700170017001700B2
:1036600017001700170017001700170017001700A2
:103670001700170017001700170017001700170092
:103680001700170017001700170017001700170082
:103690001700170017001700170017001700170072
:1036A0001700170017001700170017001700170062
:1036B0001700170017001700170017001700170052
:1036C0001700170017001700170017001700170042
:1036D0001700170017001700170017001700170032
:1036E0001700170017001700170017001700170022
:1036F0001700170017001700170017001700170012
:103700001700170017001700170017001700170001
:1037100017001700170017001700170017001700F1
:1037200017001700170017001700170017001700E1
:1037300017001700170017001700170017001700D1
:1037400017001700170017001700170018001800BF
:1037500018001800180018001800180018001800A9
:103760001800180018001800180018001800180099
:103770001800180018001800180018001800180089
:103780001800180018001800180018001800180079
:103790001800180018001800180018001800180069
:1037A0001800180018001800180018001800180059
:1037B0001800180018001800180018001800180049
:1037C0001800180018001800180018001800180039
:1037D0001800180018001800180018001800180029
:1037E0001800180018001800180018001800180019
:1037F0001800180018001800180018001800180009
:1038000018001800180018001800180018001800F8
:1038100018001800180018001800180018001800E8
:1038200018001800180018001800180018001800D8
:1038300018001800180018001800180018001800C8
:1038400018001800180018001800180018001800B8
:1038500018001800180018001800180018001800A8
:103860001800180018001800180018001800180098
:103870001800180018001800180018001800180088
:103880001800180018001800180018001800180078
:103890001800180018001800180018001800180068
:1038A0001800180018001800180018001800180058
:1038B0001800180018001800180018001800180048
:1038C0001800180018001800180018001800180038
:1038D0001800180018001800180018001800180028
:1038E0001800180018001800180018001800180018
:1038F0001800180018001800180018001800180008
:1039000018001800180018001800180018001800F7
:1039100018001800180018001800180018001900E6
:1039200019001900190019001900190019001900CF
:1039300019001900190019001900190019001900BF
:1039400019001900190019001900190019001900AF
:10395000190019001900190019001900190019009F
:10396000190019001900190019001900190019008F
:10397000190019001900190019001900190019007F
:10398000190019001900190019001900190019006F
:10399000190019001900190019001900190019005F
:1039A000190019001900190019001900190019004F
:1039B000190019001900190019001900190019003F
:1039C000190019001900190019001900190019002F
:1039D000190019001900190019001900190019001F
:1039E000190019001900190019001900190019000F
:1039F00019001900190019001900190019001900FF
:103A000019001900190019001900190019001900EE
:103A100019001900190019001900190019001900DE
:103A200019001900190019001900190019001900CE
:103A300019001900190019001900190019001900BE
:103A400019001900190019001900190019001900AE
:103A5000190019001900190019001900190019009E
:103A6000190019001900190019001900190019008E
:103A7000190019001900190019001900190019007E
:103A8000190019001900190019001900190019006E
:103A9000190019001900190019001900190019005E
:103AA000190019001900190019001900190019004E
:103AB000190019001900190019001900190019003E
:103AC000190019001900190019001900190019002E
:103AD000190019001900190019001900190019001E
:103AE000190019001900190019001900190019000E
:103AF00019001A001A001A001A001A001A001A00F7
:103B00001A001A001A001A001A001A001A001A00E5
:103B10001A001A001A001A001A001A001A001A00D5
:103B20001A001A001A001A001A001A001A001A00C5
:103B30001A001A001A001A001A001A001A001A00B5
:103B40001A001A001A001A001A001A001A001A00A5
:103B50001A001A001A001A001A001A001A001A0095
:103B60001A001A001A001A001A001A001A001A0085
:103B70001A001A001A001A001A001A001A001A0075
:103B80001A001A001A001A001A001A001A001A0065
:103B90001A001A001A001A001A001A001A001A0055
:103BA0001A001A001A001A001A001A001A001A0045
:103BB0001A001A001A001A001A001A001A001A0035
:103BC0001A001A001A001A001A001A001A001A0025
:103BD0001A001A001A001A001A001A001A001A0015
:103BE0001A001A001A001A001A001A001A001A0005
:103BF0001A001A001A001A001A001A001A001A00F5
:103C00001A001A001A001A001A001A001A001A00E4
:103C10001A001A001A001A001A001A001A001A00D4
:103C20001A001A001A001A001A001A001A001A00C4
:103C30001A001A001A001A001A001A001A001A00B4
:103C40001A001A001A001A001A001A001A001A00A4
:103C50001A001A001A001A001A001A001A001A0094
:103C60001A001A001A001A001A001A001A001A0084
:103C70001A001A001A001A001A001A001A001A0074
:103C80001A001A001A001A001A001A001A001A0064
:103C90001A001A001A001A001A001A001A001A0054
:103CA0001A001A001A001A001A001A001A001A0044
:103CB0001A001A001A001A001A001A001A001A0034
:103CC0001A001A001B001B001B001B001B001B001E
:103CD0001B001B001B001B001B001B001B001B000C
:103CE0001B001B001B001B001B001B001B001B00FC
:103CF0001B001B001B001B001B001B001B001B00EC
:103D00001B001B001B001B001B001B001B001B00DB
:103D10001B001B001B001B001B001B001B001B00CB
:103D20001B001B001B001B001B001B001B001B00BB
:103D30001B001B001B001B001B001B001B001B00AB
:103D40001B001B001B001B001B001B001B001B009B
:103D50001B001B001B001B001B001B001B001B008B
:103D60001B001B001B001B001B001B001B001B007B
:103D70001B001B001B001B001B001B001B001B006B
:103D80001B001B001B001B001B001B001B001B005B
:103D90001B001B001B001B001B001B001B001B004B
:103DA0001B001B001B001B001B001B001B001B003B
:103DB0001B001B001B001B001B001B001B001B002B
:103DC0001B001B001B001B001B001B001B001B001B
:103DD0001B001B001B001B001B001B001B001B000B
:103DE0001B001B001B001B001B001B001B001B00FB
:103DF0001B001B001B001B001B001B001B001B00EB
:103E00001B001B001B001B001B001B001B001B00DA
:103E10001B001B001B001B001B001B001B001B00CA
:103E20001B001B001B001B001B001B001B001B00BA
:103E30001B001B001B001B001B001B001B001B00AA
:103E40001B001B001B001B001B001B001B001B009A
:103E50001B001B001B001B001B001B001B001B008A
:103E60001B001B001B001B001B001B001B001B007A
:103E70001B001B001B001B001B001B001B001B006A
:103E80001B001B001B001B001B001B001B001B005A
:103E90001B001B001B001C001C001C001C001C0045
:103EA0001C001C001C001C001C001C001C001C0032
:103EB0001C001C001C001C001C001C001C001C0022
:103EC0001C001C001C001C001C001C001C001C0012
:103ED0001C001C001C001C001C001C001C001C0002
:103EE0001C001C001C001C001C001C001C001C00F2
:103EF0001C001C001C001C001C001C001C001C00E2
:103F00001C001C001C001C001C001C001C001C00D1
:103F10001C001C001C001C001C001C001C001C00C1
:103F20001C001C001C001C001C001C001C001C00B1
:103F30001C001C001C001C001C001C001C001C00A1
:103F40001C001C001C001C001C001C001C001C0091
:103F50001C001C001C001C001C001C001C001C0081
:103F60001C001C001C001C001C001C001C001C0071
:103F70001C001C001C001C001C001C001C001C0061
:103F80001C001C001C001C001C001C001C001C0051
:103F90001C001C001C001C001C001C001C001C0041
:103FA0001C001C001C001C001C001C001C001C0031
:103FB0001C001C001C001C001C001C001C001C0021
:103FC0001C001C001C001C001C001C001C001C0011
:103FD0001C001C001C001C001C001C001C001C0001
:103FE0001C001C001C001C001C001C001C001C00F1
:103FF0001C001C001C001C001C001C001C001C00E1
:104000001C001C001C001C001C001C001C001C00D0
:104010001C001C001C001C001C001C001C001C00C0
:104020001C001C001C001C001C001C001C001C00B0
:104030001C001C001C001C001C001C001C001C00A0
:104040001C001C001C001C001C001C001C001C0090
:104050001C001C001C001C001C001C001C001C0080
:104060001C001C001C001C001C001D001D001D006D
:104070001D001D001D001D001D001D001D001D0058
:104080001D001D001D001D001D001D001D001D0048
:104090001D001D001D001D001D001D001D001D0038
:1040A0001D001D001D001D001D001D001D001D0028
:1040B0001D001D001D001D001D001D001D001D0018
:1040C0001D001D001D001D001D001D001D001D0008
:1040D0001D001D001D001D001D001D001D001D00F8
:1040E0001D001D001D001D001D001D001D001D00E8
:1040F0001D001D001D001D001D001D001D001D00D8
:104100001D001D001D001D001D001D001D001D00C7
:104110001D001D001D001D001D001D001D001D00B7
:104120001D001D001D001D001D001D001D001D00A7
:104130001D001D001D001D001D001D001D001D0097
:104140001D001D001D001D001D001D001D001D0087
:104150001D001D001D001D001D001D001D001D0077
:104160001D001D001D001D001D001D001D001D0067
:104170001D001D001D001D001D001D001D001D0057
:104180001D001D001D001D001D001D001D001D0047
:104190001D001D001D001D001D001D001D001D0037
:1041A0001D001D001D001D001D001D001D001D0027
:1041B0001D001D001D001D001D001D001D001D0017
:1041C0001D001D001D001D001D001D001D001D0007
:1041D0001D001D001D001D001D001D001D001D00F7
:1041E0001D001D001D001D001D001D001D001D00E7
:1041F0001D001D001D001D001D001D001D001D00D7
:104200001D001D001D001D001D001D001D001D00C6
:104210001D001D001D001D001D001D001D001D00B6
:104220001D001D001D001D001D001D001D001D00A6
:104230001D001D001D001D001D001D001E001E0094
:104240001E001E001E001E001E001E001E001E007E
:104250001E001E001E001E001E001E001E001E006E
:104260001E001E001E001E001E001E001E001E005E
:104270001E001E001E001E001E001E001E001E004E
:104280001E001E001E001E001E001E001E001E003E
:104290001E001E001E001E001E001E001E001E002E
:1042A0001E001E001E001E001E001E001E001E001E
:1042B0001E001E001E001E001E001E001E001E000E
:1042C0001E001E001E001E001E001E001E001E00FE
:1042D0001E001E001E001E001E001E001E001E00EE
:1042E0001E001E001E001E001E001E001E001E00DE
:1042F0001E001E001E001E001E001E001E001E00CE
:104300001E001E001E001E001E001E001E001E00BD
:104310001E001E001E001E001E001E001E001E00AD
:104320001E001E001E001E001E001E001E001E009D
:104330001E001E001E001E001E001E001E001E008D
:104340001E001E001E001E001E001E001E001E007D
:104350001E001E001E001E001E001E001E001E006D
:104360001E001E001E001E001E001E001E001E005D
:104370001E001E001E001E001E001E001E001E004D
:104380001E001E001E001E001E001E001E001E003D
:104390001E001E001E001E001E001E001E001E002D
:1043A0001E001E001E001E001E001E001E001E001D
:1043B0001E001E001E001E001E001E001E001E000D
:1043C0001E001E001E001E001E001E001E001E00FD
:1043D0001E001E001E001E001E001E001E001E00ED
:1043E0001E001E001E001E001E001E001E001E00DD
:1043F0001E001E001E001E001E001E001E001E00CD
:104400001E001E001E001E001E001E001E001F00BB
:104410001F001F001F001F001F001F001F001F00A4
:104420001F001F001F001F001F001F001F001F0094
:104430001F001F001F001F001F001F001F001F0084
:104440001F001F001F001F001F001F001F001F0074
:104450001F001F001F001F001F001F001F001F0064
:104460001F001F001F001F001F001F001F001F0054
:104470001F001F001F001F001F001F001F001F0044
:104480001F001F001F001F001F001F001F001F0034
:104490001F001F001F001F001F001F001F001F0024
:1044A0001F001F001F001F001F001F001F001F0014
:1044B0001F001F001F001F001F001F001F001F0004
:1044C0001F001F001F001F001F001F001F001F00F4
:1044D0001F001F001F001F001F001F001F001F00E4
:1044E0001F001F001F001F001F001F001F001F00D4
:1044F0001F001F001F001F001F001F001F001F00C4
:104500001F001F001F001F001F001F001F001F00B3
:104510001F001F001F001F001F001F001F001F00A3
:104520001F001F001F001F001F001F001F001F0093
:104530001F001F001F001F001F001F001F001F0083
:104540001F001F001F001F001F001F001F001F0073
:104550001F001F001F001F001F001F001F001F0063
:104560001F001F001F001F001F001F001F001F0053
:104570001F001F001F001F001F001F001F001F0043
:104580001F001F001F001F001F001F001F001F0033
:104590001F001F001F001F001F001F001F001F0023
:1045A0001F001F001F001F001F001F001F001F0013
:1045B0001F001F001F001F001F001F001F001F0003
:1045C0001F001F001F001F001F001F001F001F00F3
:1045D0001F001F001F001F001F001F001F001F00E3
:1045E0001F002000200020002000200020002000CC
:1045F00020002000200020002000200020002000BB
:1046000020002000200020002000200020002000AA
:10461000200020002000200020002000200020009A
:10462000200020002000200020002000200020008A
:10463000200020002000200020002000200020007A
:10464000200020002000200020002000200020006A
:10465000200020002000200020002000200020005A
:10466000200020002000200020002000200020004A
:10467000200020002000200020002000200020003A
:10468000200020002000200020002000200020002A
:10469000200020002000200020002000200020001A
:1046A000200020002000200020002000200020000A
:1046B00020002000200020002000200020002000FA
:1046C00020002000200020002000200020002000EA
:1046D00020002000200020002000200020002000DA
:1046E00020002000200020002000200020002000CA
:1046F00020002000200020002000200020002000BA
:1047000020002000200020002000200020002000A9
:104710002000200020002000200020002000200099
:104720002000200020002000200020002000200089
:104730002000200020002000200020002000200079
:104740002000200020002000200020002000200069
:104750002000200020002000200020002000200059
:104760002000200020002000200020002000200049
:104770002000200020002000200020002000200039
:104780002000200020002000200020002000200029
:104790002000200020002000200020002000200019
:1047A0002000200020002000200020002000200009
:1047B00020002000210021002100210021002100F3
:1047C00021002100210021002100210021002100E1
:1047D00021002100210021002100210021002100D1
:1047E00021002100210021002100210021002100C1
:1047F00021002100210021002100210021002100B1
:1048000021002100210021002100210021002100A0
:104810002100210021002100210021002100210090
:104820002100210021002100210021002100210080
:104830002100210021002100210021002100210070
:104840002100210021002100210021002100210060
:104850002100210021002100210021002100210050
:104860002100210021002100210021002100210040
:104870002100210021002100210021002100210030
:104880002100210021002100210021002100210020
:104890002100210021002100210021002100210010
:1048A0002100210021002100210021002100210000
:1048B00021002100210021002100210021002100F0
:1048C00021002100210021002100210021002100E0
:1048D00021002100210021002100210021002100D0
:1048E00021002100210021002100210021002100C0
:1048F00021002100210021002100210021002100B0
:10490000210021002100210021002100210021009F
:10491000210021002100210021002100210021008F
:10492000210021002100210021002100210021007F
:10493000210021002100210021002100210021006F
:10494000210021002100210021002100210021005F
:10495000210021002100210021002100210021004F
:10496000210021002100210021002100210021003F
:10497000210021002100210021002100210021002F
:10498000210021002100220022002200220022001A
:104990002200220022002200220022002200220007
:1049A00022002200220022002200220022002200F7
:1049B00022002200220022002200220022002200E7
:1049C00022002200220022002200220022002200D7
:1049D00022002200220022002200220022002200C7
:1049E00022002200220022002200220022002200B7
:1049F00022002200220022002200220022002200A7
:104A00002200220022002200220022002200220096
:104A10002200220022002200220022002200220086
:104A20002200220022002200220022002200220076
:104A30002200220022002200220022002200220066
:104A40002200220022002200220022002200220056
:104A50002200220022002200220022002200220046
:104A60002200220022002200220022002200220036
:104A70002200220022002200220022002200220026
:104A80002200220022002200220022002200220016
:104A90002200220022002200220022002200220006
:104AA00022002200220022002200220022002200F6
:104AB00022002200220022002200220022002200E6
:104AC00022002200220022002200220022002200D6
:104AD00022002200220022002200220022002200C6
:104AE00022002200220022002200220022002200B6
:104AF00022002200220022002200220022002200A6
:104B00002200220022002200220022002200220095
:104B10002200220022002200220022002200220085
:104B20002200220022002200220022002200220075
:104B30002200220022002200220022002200220065
:104B40002200220022002200220022002200220055
:104B50002200220022002200220023002300230042
:104B6000230023002300230023002300230023002D
:104B7000230023002300230023002300230023001D
:104B8000230023002300230023002300230023000D
:104B900023002300230023002300230023002300FD
:104BA00023002300230023002300230023002300ED
:104BB00023002300230023002300230023002300DD
:104BC00023002300230023002300230023002300CD
:104BD00023002300230023002300230023002300BD
:104BE00023002300230023002300230023002300AD
:104BF000230023002300230023002300230023009D
:104C0000230023002300230023002300230023008C
:104C1000230023002300230023002300230023007C
:104C2000230023002300230023002300230023006C
:104C3000230023002300230023002300230023005C
:104C4000230023002300230023002300230023004C
:104C5000230023002300230023002300230023003C
:104C6000230023002300230023002300230023002C
:104C7000230023002300230023002300230023001C
:104C8000230023002300230023002300230023000C
:104C900023002300230023002300230023002300FC
:104CA00023002300230023002300230023002300EC
:104CB00023002300230023002300230023002300DC
:104CC00023002300230023002300230023002300CC
:104CD00023002300230023002300230023002300BC
:104CE00023002300230023002300230023002300AC
:104CF000230023002300230023002300230023009C
:104D0000230023002300230023002300230023008B
:104D1000230023002300230023002300230023007B
:104D20002300230023002300230023002400240069
:104D30002400240024002400240024002400240053
:104D40002400240024002400240024002400240043
:104D50002400240024002400240024002400240033
:104D60002400240024002400240024002400240023
:104D70002400240024002400240024002400240013
:104D80002400240024002400240024002400240003
:104D900024002400240024002400240024002400F3
:104DA00024002400240024002400240024002400E3
:104DB00024002400240024002400240024002400D3
:104DC00024002400240024002400240024002400C3
:104DD00024002400240024002400240024002400B3
:104DE00024002400240024002400240024002400A3
:104DF0002400240024002400240024002400240093
:104E00002400240024002400240024002400240082
:104E10002400240024002400240024002400240072
:104E20002400240024002400240024002400240062
:104E30002400240024002400240024002400240052
:104E40002400240024002400240024002400240042
:104E50002400240024002400240024002400240032
:104E60002400240024002400240024002400240022
:104E70002400240024002400240024002400240012
:104E80002400240024002400240024002400240002
:104E900024002400240024002400240024002400F2
:104EA00024002400240024002400240024002400E2
:104EB00024002400240024002400240024002400D2
:104EC00024002400240024002400240024002400C2
:104ED00024002400240024002400240024002400B2
:104EE00024002400240024002400240024002400A2
:104EF0002400240024002400240024002400250091
:104F00002500250025002500250025002500250079
:104F10002500250025002500250025002500250069
:104F20002500250025002500250025002500250059
:104F30002500250025002500250025002500250049
:104F40002500250025002500250025002500250039
:104F50002500250025002500250025002500250029
:104F60002500250025002500250025002500250019
:104F70002500250025002500250025002500250009
:104F800025002500250025002500250025002500F9
:104F900025002500250025002500250025002500E9
:104FA00025002500250025002500250025002500D9
:104FB00025002500250025002500250025002500C9
:104FC00025002500250025002500250025002500B9
:104FD00025002500250025002500250025002500A9
:104FE0002500250025002500250025002500250099
:104FF0002500250025002500250025002500250089
:105000002500250025002500250025002500250078
:105010002500250025002500250025002500250068
:105020002500250025002500250025002500250058
:105030002500250025002500250025002500250048
:105040002500250025002500250025002500250038
:105050002500250025002500250025002500250028
:105060002500250025002500250025002500250018
:105070002500250025002500250025002500250008
:1050800025002500250025002500250025002500F8
:1050900025002500250025002500250025002500E8
:1050A00025002500250025002500250025002500D8
:1050B00025002500250025002500250025002500C8
:1050C00025002500250025002500250025002500B8
:1050D00025002600260026002600260026002600A1
:1050E0002600260026002600260026002600260090
:1050F0002600260026002600260026002600260080
:10510000260026002600260026002600260026006F
:10511000260026002600260026002600260026005F
:10512000260026002600260026002600260026004F
:10513000260026002600260026002600260026003F
:10514000260026002600260026002600260026002F
:10515000260026002600260026002600260026001F
:10516000260026002600260026002600260026000F
:1051700026002600260026002600260026002600FF
:1051800026002600260026002600260026002600EF
:1051900026002600260026002600260026002600DF
:1051A00026002600260026002600260026002600CF
:1051B00026002600260026002600260026002600BF
:1051C00026002600260026002600260026002600AF
:1051D000260026002600260026002600260026009F
:1051E000260026002600260026002600260026008F
:1051F000260026002600260026002600260026007F
:10520000260026002600260026002600260026006E
:10521000260026002600260026002600260026005E
:10522000260026002600260026002600260026004E
:10523000260026002600260026002600260026003E
:10524000260026002600260026002600260026002E
:10525000260026002600260026002600260026001E
:10526000260026002600260026002600260026000E
:1052700026002600260026002600260026002600FE
:1052800026002600260026002600260026002600EE
:1052900026002600260026002600260026002600DE
:1052A00026002600270027002700270027002700C8
:1052B00027002700270027002700270027002700B6
:1052C00027002700270027002700270027002700A6
:1052D0002700270027002700270027002700270096
:1052E0002700270027002700270027002700270086
:1052F0002700270027002700270027002700270076
:105300002700270027002700270027002700270065
:105310002700270027002700270027002700270055
:105320002700270027002700270027002700270045
:105330002700270027002700270027002700270035
:105340002700270027002700270027002700270025
:105350002700270027002700270027002700270015
:105360002700270027002700270027002700270005
:1053700027002700270027002700270027002700F5
:1053800027002700270027002700270027002700E5
:1053900027002700270027002700270027002700D5
:1053A00027002700270027002700270027002700C5
:1053B00027002700270027002700270027002700B5
:1053C00027002700270027002700270027002700A5
:1053D0002700270027002700270027002700270095
:1053E0002700270027002700270027002700270085
:1053F0002700270027002700270027002700270075
:105400002700270027002700270027002700270064
:105410002700270027002700270027002700270054
:105420002700270027002700270027002700270044
:105430002700270027002700270027002700270034
:105440002700270027002700270027002700270024
:105450002700270027002700270027002700270014
:105460002700270027002700270027002700270004
:1054700027002700270028002800280028002800EF
:1054800028002800280028002800280028002800DC
:1054900028002800280028002800280028002800CC
:1054A00028002800280028002800280028002800BC
:1054B00028002800280028002800280028002800AC
:1054C000280028002800280028002800280028009C
:1054D000280028002800280028002800280028008C
:1054E000280028002800280028002800280028007C
:1054F000280028002800280028002800280028006C
:10550000280028002800280028002800280028005B
:10551000280028002800280028002800280028004B
:10552000280028002800280028002800280028003B
:10553000280028002800280028002800280028002B
:10554000280028002800280028002800280028001B
:10555000280028002800280028002800280028000B
:1055600028002800280028002800280028002800FB
:1055700028002800280028002800280028002800EB
:1055800028002800280028002800280028002800DB
:1055900028002800280028002800280028002800CB
:1055A00028002800280028002800280028002800BB
:1055B00028002800280028002800280028002800AB
:1055C000280028002800280028002800280028009B
:1055D000280028002800280028002800280028008B
:1055E000280028002800280028002800280028007B
:1055F000280028002800280028002800280028006B
:10560000280028002800280028002800280028005A
:10561000280028002800280028002800280028004A
:10562000280028002800280028002800280028003A
:10563000280028002800280028002800280028002A
:105640002800280028002800280029002900290017
:105650002900290029002900290029002900290002
:1056600029002900290029002900290029002900F2
:1056700029002900290029002900290029002900E2
:1056800029002900290029002900290029002900D2
:1056900029002900290029002900290029002900C2
:1056A00029002900290029002900290029002900B2
:1056B00029002900290029002900290029002900A2
:1056C0002900290029002900290029002900290092
:1056D0002900290029002900290029002900290082
:1056E0002900290029002900290029002900290072
:1056F0002900290029002900290029002900290062
:105700002900290029002900290029002900290051
:105710002900290029002900290029002900290041
:105720002900290029002900290029002900290031
:105730002900290029002900290029002900290021
:105740002900290029002900290029002900290011
:105750002900290029002900290029002900290001
:1057600029002900290029002900290029002900F1
:1057700029002900290029002900290029002900E1
:1057800029002900290029002900290029002900D1
:1057900029002900290029002900290029002900C1
:1057A00029002900290029002900290029002900B1
:1057B00029002900290029002900290029002900A1
:1057C0002900290029002900290029002900290091
:1057D0002900290029002900290029002900290081
:1057E0002900290029002900290029002900290071
:1057F0002900290029002900290029002900290061
:105800002900290029002900290029002900290050
:105810002900290029002900290029002A002A003E
:105820002A002A002A002A002A002A002A002A0028
:105830002A002A002A002A002A002A002A002A0018
:105840002A002A002A002A002A002A002A002A0008
:105850002A002A002A002A002A002A002A002A00F8
:105860002A002A002A002A002A002A002A002A00E8
:105870002A002A002A002A002A002A002A002A00D8
:105880002A002A002A002A002A002A002A002A00C8
:105890002A002A002A002A002A002A002A002A00B8
:1058A0002A002A002A002A002A002A002A002A00A8
:1058B0002A002A002A002A002A002A002A002A0098
:1058C0002A002A002A002A002A002A002A002A0088
:1058D0002A002A002A002A002A002A002A002A0078
:1058E0002A002A002A002A002A002A002A002A0068
:1058F0002A002A002A002A002A002A002A002A0058
:105900002A002A002A002A002A002A002A002A0047
:105910002A002A002A002A002A002A002A002A0037
:105920002A002A002A002A002A002A002A002A0027
:105930002A002A002A002A002A002A002A002A0017
:105940002A002A002A002A002A002A002A002A0007
:105950002A002A002A002A002A002A002A002A00F7
:105960002A002A002A002A002A002A002A002A00E7
:105970002A002A002A002A002A002A002A002A00D7
:105980002A002A002A002A002A002A002A002A00C7
:105990002A002A002A002A002A002A002A002A00B7
:1059A0002A002A002A002A002A002A002A002A00A7
:1059B0002A002A002A002A002A002A002A002A0097
:1059C0002A002A002A002A002A002A002A002A0087
:1059D0002A002A002A002A002A002A002A002A0077
:1059E0002A002A002A002A002A002A002A002B0066
:1059F0002B002B002B002B002B002B002B002B004F
:105A00002B002B002B002B002B002B002B002B003E
:105A10002B002B002B002B002B002B002B002B002E
:105A20002B002B002B002B002B002B002B002B001E
:105A30002B002B002B002B002B002B002B002B000E
:105A40002B002B002B002B002B002B002B002B00FE
:105A50002B002B002B002B002B002B002B002B00EE
:105A60002B002B002B002B002B002B002B002B00DE
:105A70002B002B002B002B002B002B002B002B00CE
:105A80002B002B002B002B002B002B002B002B00BE
:105A90002B002B002B002B002B002B002B002B00AE
:105AA0002B002B002B002B002B002B002B002B009E
:105AB0002B002B002B002B002B002B002B002B008E
:105AC0002B002B002B002B002B002B002B002B007E
:105AD0002B002B002B002B002B002B002B002B006E
:105AE0002B002B002B002B002B002B002B002B005E
:105AF0002B002B002B002B002B002B002B002B004E
:105B00002B002B002B002B002B002B002B002B003D
:105B10002B002B002B002B002B002B002B002B002D
:105B20002B002B002B002B002B002B002B002B001D
:105B30002B002B002B002B002B002B002B002B000D
:105B40002B002B002B002B002B002B002B002B00FD
:105B50002B002B002B002B002B002B002B002B00ED
:105B60002B002B002B002B002B002B002B002B00DD
:105B70002B002B002B002B002B002B002B002B00CD
:105B80002B002B002B002B002B002B002B002B00BD
:105B90002B002B002B002B002B002B002B002B00AD
:105BA0002B002B002B002B002B002B002B002B009D
:105BB0002B002B002B002B002B002B002B002B008D
:105BC0002B002C002C002C002C002C002C002C0076
:105BD0002C002C002C002C002C002C002C002C0065
:105BE0002C002C002C002C002C002C002C002C0055
:105BF0002C002C002C002C002C002C002C002C0045
:105C00002C002C002C002C002C002C002C002C0034
:105C10002C002C002C002C002C002C002C002C0024
:105C20002C002C002C002C002C002C002C002C0014
:105C30002C002C002C002C002C002C002C002C0004
:105C40002C002C002C002C002C002C002C002C00F4
:105C50002C002C002C002C002C002C002C002C00E4
:105C60002C002C002C002C002C002C002C002C00D4
:105C70002C002C002C002C002C002C002C002C00C4
:105C80002C002C002C002C002C002C002C002C00B4
:105C90002C002C002C002C002C002C002C002C00A4
:105CA0002C002C002C002C002C002C002C002C0094
